:100000000C9436000C940E0C0C94350C0C945E0081
:100010000C945E000C945E000C945E000C945E00E8
:100020000C945E000C945E000C945E000C945E00D8
:100030000C945E000C945E000C945E000C945E00C8
:100040000C94F30A0C945E000C947E0D0C94AB0D92
:100050000C945E000C945E000C945E000C945E00A8
:100060000C945E000C945E00080CD10D11241FBE90
:10007000CFEFD8E0DEBFCDBF12E0A0E0B1E0ECED05
:10008000FEE102C005900D92A83BB107D9F725E02B
:10009000A8EBB2E001C01D92A736B207E1F710E06D
:1000A000C6E3D0E004C02197FE010E94570FC4337D
:1000B000D107C9F70E94F90B0C942B0F0C94000088
:1000C000E2E10E9405010895E9E00E94050108951A
:1000D000EAE00E9405010895E1E00E94050108950B
:1000E000E3E00E9405010895E7E00E9405010895FC
:1000F000E5E00E9405010895E0E00E9405010895F1
:10010000E2E00E9405010895E4E00E9405010895DF
:10011000ECE00E9405010895E8E00E9405010895C1
:10012000EEE00E9405010895E4E10E9405010895B2
:10013000E0E10E9405010895E7E10E9405010895AC
:10014000E6E00E9405010895EBE00E940501089594
:10015000EDE00E9405010895EFE00E940501089579
:10016000E1E10E9405010895E3E10E94050108957F
:10017000E5E10E9405010895E6E10E940501089568
:1001800021968A929A92AA92BA92CA92DA92EA92A4
:10019000FA920A931A932197E0916901F0916A010A
:1001A0000080F181E02DC083D1830895C0916B015F
:1001B000D0916C01E881F981C081D181219619919A
:1001C0000991F990E990D990C990B990A990999026
:1001D0008990219708952F903F90E7E6F1E0CDB701
:1001E000DEB7EDBFFEBF3F922F9208952F903F9054
:1001F000CDBFDEBF3F922F920895E0E80E94050137
:100200000895E0E40E94050108952F923F924F92D5
:100210005F926F927F922FB62F92CF93DF937E2EB5
:10022000F894E0910001EF5FE0930001E13011F4F8
:100230000E94EB00E0E0E0937901E72DE07849F0DF
:100240000E943B05F0917A01F17071F00E94F10378
:100250000BC0E72DEC3140F4EE0FF0E0ED58FD4F10
:100260000190F081E02D0995F0917901EF2FE17077
:1002700059F0F27011F00E94C0008F938F2F0E94EE
:100280003B038F910E94D6002091000121502093C2
:100290000001222311F40E94F600DF91CF912F90EC
:1002A0002FBE7F906F905F904F903F902F9008955A
:1002B000FC014081FB013081842F8F7090E0B0E021
:1002C000A0E0B695A795979587958F529D4FFC0115
:1002D0008081242F281B21704E70242B832F8F7038
:1002E00090E0B0E0A0E0B695A795979587958F52DE
:1002F0009D4FFC018081932F981B91703E70932B32
:1003000041E050E0291710F050E040E0CA010895A4
:10031000AF92BF92CF92DF92EF92FF920F931F9313
:10032000CF93DF938C01CA01DB016A017B01F69454
:10033000E794D794C79482309105A105B10580F068
:10034000880F991FE801C80FD91F5601AA0CBB1CC2
:10035000A00EB11EBE01C5010E945801892B59F49F
:10036000DF91CF911F910F91FF90EF90DF90CF9091
:10037000BF90AF90089598818981F50120813181E6
:100380003983288390838183D701C601D0CF4F92D0
:100390005F926F927F928F929F92AF92BF92CF9215
:1003A000DF92EF92FF92CF93DF9300D000D000D086
:1003B000CDB7DEB78D839E836A017B01AD81BE819F
:1003C0008C91282F30E050E040E029833A834B8322
:1003D0005C8346015701880C991CAA1CBB1C29810F
:1003E0003A814B815C81281539054A055B05A8F4E3
:1003F00026960FB6F894DEBF0FBECDBFDF91CF912A
:10040000FF90EF90DF90CF90BF90AF909F908F9034
:100410007F906F905F904F900895240135013FEFDA
:10042000431A530A630A730A89819A81AB81BC819A
:1004300084159505A605B70590F0B201660F771FE4
:10044000AD81BE816A0F7B1FC401880F991F8A0F7F
:100450009B1F0E945801892B11F053014201340166
:10046000660C771CED81FE816E0E7F1ECC0CDD1CB0
:10047000CE0EDF1EB301C6010E945801892B09F47C
:10048000B7CFD6019C9111968C911197F3012081E1
:1004900031812D933C93908381837501640199CFC1
:1004A000E9E8F3E040814F5F408350E070E060E0B6
:1004B000E82FEE0FFF0BE95DFD4F0190F081E02D7D
:1004C000238530E0F901EF52FD4F908191509083E8
:1004D000FA01EE0FFF1FE757FC4F220F331F9170F9
:1004E000922B9083818389E893E00C948801E9E85A
:1004F000F3E040814F5F408350E070E060E0FA013C
:10050000EE0FFF1FE757FC4FA82FAA0FBB0BA15EF2
:10051000BD4F0D90BC91A02D13969C91908381832B
:1005200089E893E00C948801CF93DF93E9E8F3E046
:1005300080819FEF980F9083D281C38190E0880FD4
:10054000991F87579C4FDC018D919C9193838283E7
:1005500041E050E060E070E0CF010E94C7018D2FC4
:100560009C2FDF91CF9108958091B802811115C021
:100570004091710150917201609173017091740109
:100580004F3F9FEF59076907790751F043305105F5
:100590006105710524F481E0089584E0089582E006
:1005A0000895CF93DF93880F990BFC01E95DFD4F10
:1005B0000190F081E02D0084F185E02D3097E1F08D
:1005C0002281211119C021E02283815E9D4FEC011F
:1005D000A881B98113968C9113978183208130E093
:1005E000F901EF52FD4F808181508083220F331F2C
:1005F0008170822B13968C93DF91CF910895CF93C6
:10060000DF93880F990BFC01E95DFD4F0190F081AC
:10061000E02D0084F185E02D309761F022812130BA
:1006200049F41282815E9D4FEC01A881B9818181DC
:1006300013968C93DF91CF910895809175019091DD
:100640007601A0917701B0917801409171015091AC
:1006500072016091730170917401481759076A071C
:100660007B0741F0E0916F01F091700121E024835C
:100670000C9477020895CF93DF93D0E0C0E08823F5
:1006800089F0C0916901D0916A01E0916D01F0910A
:100690006E018481833031F081E084838091710127
:1006A0000E947702E0916F01F0917001F0936E016A
:1006B000E0936D0180916B0190916C0190936A01C0
:1006C00080936901809175013091760120917701C5
:1006D000909178018093710130937201209373019E
:1006E0009093740192E094830E94D102CE01DF9135
:1006F000CF910895809171010E94FF02E0916D01F8
:10070000F0916E018281882319F085E08483089539
:1007100014820895CF93DF93282F220F330BF90112
:10072000E15EFD4FC081D1819A81295D3D4FD901A4
:10073000ED91FC912485921780F4911105C095E00C
:100740009C8391E090937A010E9450028A818F5F8E
:100750008A8380E0DF91CF91089584E0FBCFE82F7A
:10076000EE0FFF0BE15EFD4F0190F081E02D118255
:1007700010820C94A70B1F93CF93DF930E949402D7
:10078000182F892F492F092E000C550B660B770B5C
:1007900040937501509376016093770170937801CF
:1007A000292F220F330BF901E15EFD4FC081D1816A
:1007B000D0937001C0936F01295D3D4FF9012081F5
:1007C000318130936C0120936B019C81953019F439
:1007D0000E94AF031B8310927A01DF91CF911F918A
:1007E0000895E0917501F0917601EE0FFF1FE15E33
:1007F000FD4F0190F081E02D90918B03838189174B
:1008000040F40E941D030E94BB0383E080937901A2
:10081000089580E0FBCF81E0809379010C94BB03C5
:10082000EF92FF920F931F93CF93DF93C1E001C02C
:10083000CC0F8A95EAF783E00E948A030FE612E064
:10084000D0E0F80181918F018C2319F08D2F0E9447
:100850008A03DF5FD330A9F79CE6E92E92E0F92EF8
:1008600010E000E0D1E0F70181917F018C2359F085
:10087000F801EE0FFF1FE250FE4F80819181FC01D5
:10088000D6870E9479040F5F1F4F0330110559F777
:10089000DF91CF911F910F91FF90EF9008950E94EB
:1008A0001C0681110E943C06E0916D01F0916E01E1
:1008B00080819181892B21F0809171010E94F6073E
:1008C0000C9461070E941C0681110E943C06E09175
:1008D0006D01F0916E0180819181892B21F08091D1
:1008E00071010E94F6070C944C0781E08093B902D5
:1008F0000895CF92DF92EF92FF920F931F93CF93C1
:10090000DF93FC01A081B1810D90BC91A02D549684
:100910008D919C915597009709F445C04285538568
:100920006485758530E020E0EC01CA84DB84EC84CA
:10093000FD844C155D056E057F0508F049C08C01EE
:1009400013830283358324830115110519F0E8010F
:10095000FD83EC832115310509F444C0E901FB83D3
:10096000EA835696CD91DC9157970A851B852C8595
:100970003D855096CD90DD90ED90FC9053970C15F1
:100980001D052E053F0598F5C416D506E606F706A3
:1009900028F0401751076207730788F45796FC93B5
:1009A000EE9356970CC05596FC93EE93549757963A
:1009B000FC93EE9356971582148213821282DF9174
:1009C000CF911F910F91FF90EF90DF90CF900895FE
:1009D000EC010A811B819C010115110509F4B0CFBE
:1009E000C801A2CF5596FC93EE935497BACFC41684
:1009F000D506E606F70618F7CCCFCF93DF93FC01B8
:100A0000A081B1810D90BC91A02DC281D38154965B
:100A10008D919C9155978E179F0721F45596DC93E5
:100A2000CE93549756968D919C9157978E179F070A
:100A300021F45796DC93CE935697209721F084812A
:100A400095819D838C830480F581E02D309711F092
:100A5000D383C28356968D919C915797892B41F4ED
:100A600054968D919C91559757969C938E9356973B
:100A7000DF91CF910895EF92FF920F931F93CF9341
:100A8000DF93EC018091B902882309F4A8C08C851A
:100A90009D85AE85BF850196A11DB11D8C879D8763
:100AA000AE87BF87488159816A817B81841795070A
:100AB000A607B70709F093C088899989AA89BB89D5
:100AC0000196A11DB11D4C815D816E817F8148170A
:100AD00059076A077B0718F480E090E0DC01888BF7
:100AE000998BAA8BBB8B1C861D861E861F860E8942
:100AF0001F890115110509F472C0F801428553855B
:100B000064857585481759076A077B0709F067C030
:100B10009F010280F381E02D309749F04285538593
:100B20006485758584179507A607B70789F3D801EB
:100B300014968D919C91009729F0DC011396FC93FB
:100B4000EE931297309711F0958384838C899D8959
:100B50000817190711F4FD8BEC8B309709F446C088
:100B6000FF8BEE8BF901138212827801D801129665
:100B70000D911C911397ED91FC910280F381E02D72
:100B8000C7010995F70186819781A085B1850097F6
:100B9000A105B10581F14285538564857585840F72
:100BA000951FA61FB71F4C815D816E817F814817FD
:100BB00059076A077B0740F44095509560957095FA
:100BC000840F951FA61FB71FF70182879387A487FD
:100BD000B587C7010E9479040115110531F6DF912F
:100BE000CF911F910F91FF90EF9008958C899D896F
:100BF0009F8B8E8BB7CF1686EFCFFC0182810C9432
:100C00008A030E941C068091680108958093680100
:100C10000E9410040E9475040C940B040C94A60B03
:100C2000CF93C82F0E94B402811102C00E94EF0B23
:100C30008C2FCF910C9464002091C6022130D1F00A
:100C40004091BE025091BF026091C0027091C102FA
:100C50008091C2029091C302A091C402B091C502DA
:100C6000842B952BA62BB72B21E0892B8A2B8B2B42
:100C700009F420E0822F08951092C6021092C20259
:100C80001092C3021092C4021092C5021092BE02CA
:100C90001092BF021092C0021092C1028091BA025B
:100CA0009091BB02A091BC02B091BD028093C7029B
:100CB0009093C802A093C902B093CA0208950E94FB
:100CC000F20B8091C7029091C802A091C902B09125
:100CD000CA020196A11DB11D8093C7029093C8025C
:100CE000A093C902B093CA028091C2029091C3023C
:100CF000A091C402B091C5020196A11DB11D8093BF
:100D0000C2029093C302A093C402B093C502089597
:100D10008091C2029091C302A091C402B091C50219
:100D20000097A105B10569F14091C7025091C80231
:100D30006091C9027091CA0241505109610971095B
:100D40004093C7025093C8026093C9027093CA02CD
:100D50000197A109B1098093C2029093C302A093A5
:100D6000C402B093C5028091C7029091C802A091BD
:100D7000C902B091CA02892B8A2B8B2B11F40C94D7
:100D8000F00B08958091C2029091C302A091C40219
:100D9000B091C5024091BE025091BF026091C00265
:100DA0007091C102842B952BA62BB72B892B8A2BF4
:100DB0008B2B29F40E94F20B81E08093C6020895E8
:100DC0008091C602882321F01092C6020C94F00B89
:100DD00008950E94F60B8091C7029091C802A091DD
:100DE000C902B091CA020196A11DB11D8093C7022C
:100DF0009093C802A093C902B093CA028091BE0228
:100E00009091BF02A091C002B091C1020196A11DB4
:100E1000B11D8093BE029093BF02A093C002B09315
:100E2000C10208958091BE029091BF02A091C002BC
:100E3000B091C1020097A105B10569F14091C702C7
:100E40005091C8026091C9027091CA024150510983
:100E5000610971094093C7025093C8026093C902A7
:100E60007093CA020197A109B1098093BE029093C1
:100E7000BF02A093C002B093C1028091C7029091BB
:100E8000C802A091C902B091CA02892B8A2B8B2B70
:100E900011F40C94F40B08950E941C06811183E157
:100EA0000895CF93C82F0E941C068C2F0E948A039E
:100EB000C82F80917A0181110E94F1038C2FCF916C
:100EC0000895CF930E941C06C82F8111C3E1E091C1
:100ED0006D01F0916E018281815082830E947A03BC
:100EE00081E0809379010E94BB038C2FCF910895FC
:100EF000CF93C82F0E941C06E0916D01F0916E0106
:100F00008281815082838C2F0E948A03C82F811195
:100F10000AC00E947A0381E0809379010E94BB039A
:100F20008C2FCF910895E0916D01F0916E01828137
:100F30008F5F8283F5CFCF930E941C06C82F81114B
:100F4000C3E1809171010E94FF020E94F103809130
:100F5000710190917201A0917301B091740140915F
:100F60007501509176016091770170917801841735
:100F70009507A607B70711F40E94D1028C2FCF91D5
:100F80000895CF93DF93EC010E941C06811183E149
:100F900040917101509172016091730170917401DF
:100FA000433051056105710524F44883DF91CF91E9
:100FB00008959091DD019883F9CF0F931F93CF93FC
:100FC000C82F8B010E941C06811183E1EC2FEE0FCC
:100FD000FF0BE15EFD4F0190F081E02D9481937055
:100FE000F8019083CF911F910F910895E82FEE0F94
:100FF000FF0BE15EFD4FA081B181ED91FC91119756
:10100000309789F01D921C928091DD01DF010380F1
:10101000F481E02D12968C93129714961C921E92D6
:101020001397309799F70895CF93C82F0E941C0605
:10103000811183E1EC2FF0E0EE0FFF1FE959FD4F26
:101040000190F081E02D909171019283A0916D014A
:10105000B0916E012D913C911197348323831196A9
:10106000FC93EE9313969C91139791832081969510
:10107000921768F430E0F901EF52FD4F90819150E2
:101080009083220F331F9170922B13969C93CF91D4
:101090000895CF93DF93C82F0E941C06D82F81118B
:1010A000D3E1EC2FF0E0EE0FFF1FE959FD4F019067
:1010B000F081E02DA0916D01B0916E0181811396B8
:1010C0008C931397838194818D939C9314821382C4
:1010D0008091DD0182830E94F1038D2FDF91CF91FA
:1010E0000895DC01ED91FC9184819581DC01ED9105
:1010F000FC9109941F93CF93DF93182FEB010E946B
:101100001C06811183E1E12FF0E0EE0FFF1FE2509A
:10111000FE4F0190F081E02D0190F081E02D0190D3
:10112000F081E02D40815181628173814C835D8328
:101130006E837F834481558166817781488359839B
:101140006A837B834085518562857385488759878B
:101150006A877B87DF91CF911F9108958F929F922D
:10116000AF92BF92CF92DF92EF92FF920F931F93B5
:10117000CF93C82F8B010E941C06811183E1EC2FB5
:10118000F0E0EE0FFF1FE250FE4F0190F081E02DE6
:101190009685913081F542855385648575850190EA
:1011A000F081E02D0190F081E02DC088D188E288A7
:1011B000F3884C155D056E057F0540F484809580AD
:1011C000A680B780480D591D6A1D7B1D4C195D090D
:1011D0006E097F09F8014083518362837383CF9145
:1011E0001F910F91FF90EF90DF90CF90BF90AF9045
:1011F0009F908F90089585E0F2CFAF92BF92CF92EB
:10120000DF92EF92FF920F931F93CF93DF93A82E5D
:101210006A017B01B22ED32F0E941C06C82F8111B8
:10122000C3E1EA2DF0E0EE0FFF1FE250FE4F019008
:10123000F081E02D868581113CC0A081B1810D90A7
:10124000BC91A02D50964D915D916D917C915397DD
:10125000C40ED51EE61EF71E14968D919D910D901D
:10126000BC91A02D8C159D05AE05BF0548F4C81A8C
:10127000D90AEA0AFB0A81E0C81AD108E108F10894
:10128000C286D386E486F58606831783B086D18727
:1012900081E08687CF010E9479048C2FDF91CF9166
:1012A0001F910F91FF90EF90DF90CF90BF90AF9084
:1012B0000895C7E0F2CFAF92BF92CF92DF92EF9244
:1012C000FF920F931F93CF93DF93C82F5A016B01A7
:1012D00079010E941C06D82F8111D3E1EC2FF0E098
:1012E000EE0FFF1FE250FE4F0190F081E02D86854A
:1012F000811119C0A286B386C486D586068317835A
:10130000E086F18681E08687CF010E9479048D2FE7
:10131000DF91CF911F910F91FF90EF90DF90CF90D1
:10132000BF90AF900895D7E0F2CF0F931F93CF9364
:10133000DF93C82F0E941C06D82F8111D3E1EC2F18
:10134000F0E0EE0FFF1FE250FE4F00811181F80127
:101350008685813059F4C8010E94FD04F801168683
:101360008D2FDF91CF911F910F910895D5E0F8CF88
:10137000CF92DF92EF92FF92CF93DF9300D000D015
:10138000CDB7DEB728EC30E0DC010E94500F698356
:101390007A838B839C83C12CD12C760189819A819D
:1013A000AB81BC81C816D906EA06FB0641F00E9453
:1013B0004B0B9FEFC91AD90AE90AF90AEFCF0F9030
:1013C0000F900F900F90DF91CF91FF90EF90DF90F3
:1013D000CF90089526E040E052EC61E070E086EEA8
:1013E00092E00C94C90ECF9364EA72E086EE92E02C
:1013F0000E94A00C6EED71E086EE92E00E94A00CBF
:101400006091CF027091D0024AE050E086EE92E007
:101410000E94560D66EE71E086EE92E00E94A00CEE
:1014200068EE71E086EE92E00E94A00C0E944B0BE9
:10143000AB01BC012AE030E086EE92E00E945D0D37
:101440006AEE71E086EE92E00E94A00CC0916B0201
:101450008C2F0E94A4008CE291E00E94B8090E94A7
:101460004B0BAB01BC012AE030E086EE92E00E941B
:101470006A0D64EA72E086EE92E00E94A00C809110
:10148000CF029091D00201969093D0028093CF0228
:101490008C2FCF910C94A8006EEE71E086EE92E056
:1014A0000E94A00C6091CD027091CE024AE050E003
:1014B00086EE92E00E94560D66EE71E086EE92E0B6
:1014C0000E94A00C68EE71E086EE92E00E94A00CF3
:1014D0000E944B0BAB01BC012AE030E086EE92E0AB
:1014E0000E945D0D6AEE71E086EE92E00E94A00C13
:1014F00088E592E00E94B8090E944B0BAB01BC0149
:101500002AE030E086EE92E00E946A0D64EA72E022
:1015100086EE92E00E94A00C8091CD029091CE02C6
:1015200001969093CE028093CD020895CF9366EFFB
:1015300071E086EE92E00E94A00C6091CB02709167
:10154000CC024AE050E086EE92E00E94560D66EE34
:1015500071E086EE92E00E94A00C68EE71E086EEEB
:1015600092E00E94A00C0E944B0BAB01BC012AE050
:1015700030E086EE92E00E945D0D6AEE71E086EE4C
:1015800092E00E94A00C88EC90E00E94B809C09103
:101590006B028C2F0E94A4008CE291E00E94B8099B
:1015A0000E944B0BAB01BC012AE030E086EE92E0DA
:1015B0000E946A0D64EA72E086EE92E00E94A00C3E
:1015C0008C2F0E94A8008091CB029091CC020196B2
:1015D0009093CC028093CB02CF91089587EB91E05A
:1015E0000C94FD0008951F920F920FB60F921124D4
:1015F0002F933F934F935F936F937F938F939F931B
:10160000AF93BF93EF93FF938091DD029091DE0241
:10161000A091DF02B091E0023091DC0223E0230FC1
:101620002D3798F50196A11DB11D2093DC02809302
:10163000DD029093DE02A093DF02B093E00280917E
:10164000E1029091E202A091E302B091E4020196DE
:10165000A11DB11D8093E1029093E202A093E302E9
:10166000B093E4020E94EE0AFF91EF91BF91AF9117
:101670009F918F917F916F915F914F913F912F91AA
:101680000F900FBE0F901F90189526E8230F02961B
:10169000A11DB11DCACFCF93DF9300D000D0CDB72D
:1016A000DEB78FB7F8942091DD023091DE024091D1
:1016B000DF025091E00229833A834B835C838FBF22
:1016C00069817A818B819C810F900F900F900F9090
:1016D000DF91CF91089584B5826084BD84B5816027
:1016E00084BD85B5826085BD85B5816085BDEEE62A
:1016F000F0E0808181608083E1E8F0E01082808109
:1017000082608083808181608083E0E8F0E0808176
:1017100081608083E1EBF0E0808184608083E0EB96
:10172000F0E0808181608083EAE7F0E0808184607E
:1017300080838081826080838081816080838081DA
:10174000806880831092C1000895FFCFFFCFCF93B0
:10175000DF93E82FEE0FFF0BE95DFD4FA081B18114
:101760001496ED91FC911597319712968D919C915D
:101770001397E80FF91F1D968C911D97EF01219784
:10178000823051F584E890E08083988316969C918E
:10179000169717968C911797EF01229798832197A8
:1017A00088832197CF010A97188221978C179D076C
:1017B000D9F720E8EC012883EF012B97779718825F
:1017C0002197EC17FD07D9F70D90BC91A02DED9353
:1017D000FC93DF91CF91089580EA90E0D5CF0895F2
:1017E00078940895F894089578940895F894089555
:1017F00008950E946B0B0E94F80B0E94F20A0E944F
:10180000EA098091E5020E94100690E080E00895C8
:10181000809172028093E502089508951F920F92BD
:101820000FB60F9211242F933F934F935F936F93B3
:101830007F938F939F93AF93BF93EF93FF93E09129
:10184000D901F091DA010995FF91EF91BF91AF9124
:101850009F918F917F916F915F914F913F912F91C8
:101860000F900FBE0F901F9018951F920F920FB6FA
:101870000F9211242F933F934F935F936F937F9316
:101880008F939F93AF93BF93EF93FF93E091DB010F
:10189000F091DC010995FF91EF91BF91AF919F917C
:1018A0008F917F916F915F914F913F912F910F9009
:1018B0000FBE0F901F901895CF92DF92EF92FF927C
:1018C0000F931F93CF93DF937C016A0110E000E038
:1018D0000C151D0581F0EB01D701ED91FC910190F4
:1018E000F081E02D6991C7010995892B21F00F5FE7
:1018F0001F4FBE01EDCFC801DF91CF911F910F9116
:10190000FF90EF90DF90CF900895CF93DF93EC019D
:10191000DB01AB2B81F0FB0101900020E9F731974F
:10192000AF01461B570BE881F9810280F381E02D5E
:10193000DF91CF91099490E080E0DF91CF910895FD
:101940000C94850CDC01ED91FC910190F081E02D6F
:10195000099463EA72E00C94850C6F927F928F92E7
:101960009F92AF92BF92CF92DF92EF92FF920F932E
:101970001F93CF93DF93CDB7DEB7A1970FB6F8943F
:10198000DEBF0FBECDBF3C01142F052F962E872E34
:1019900019A2223008F42AE05E0181E2A80EB11CEF
:1019A000C22ED12CF12CE12C612F702F892D982D76
:1019B000A70196010E942E0F812F902FA92DB82DDF
:1019C000122F032F942E852E6A3014F5605DF501D9
:1019D00062935F018C159D05AE05BF0528F7BF0119
:1019E000C3010E94850CA1960FB6F894DEBF0FBE0E
:1019F000CDBFDF91CF911F910F91FF90EF90DF90BE
:101A0000CF90BF90AF909F908F907F906F900895F0
:101A1000695CDDCFCF92DF92EF92FF920F931F931D
:101A2000CF93DF93EC016A017B01C901892B81F41B
:101A3000E881F9810190F081E02D642FCE01DF91E2
:101A4000CF911F910F91FF90EF90DF90CF9009946D
:101A50002A303105F1F42AE0F7FE1BC06DE2CE0119
:101A60000E94A20C8C0144275527BA014C195D092C
:101A70006E097F092AE0CE010E94AD0C800F911FF4
:101A8000DF91CF911F910F91FF90EF90DF90CF905A
:101A90000895B701A601CE01DF91CF911F910F915B
:101AA000FF90EF90DF90CF900C94AD0C9A01AB01BA
:101AB000770F660B770B0C940A0DF901EF2B41F4AD
:101AC000DC01ED91FC910190F081E02D642F0994EF
:101AD0000C94AD0C0F931F93CF93DF93D82FC92F86
:101AE0000E945D0D8C018D2F9C2F0E94A90C800FF0
:101AF000911FDF91CF911F910F9108952F932FB7D1
:101B00002F938F939F93EF93FF93E091F602F091C1
:101B1000F7028081E091FC02F091FD0282FD19C084
:101B200090818091FF028F5F8F7320910003821755
:101B300041F0E091FF02F0E0EA51FD4F958F809374
:101B4000FF02FF91EF919F918F912F912FBF2F91C6
:101B500018958081F6CF1F920F920FB60F92112425
:101B60002F933F934F935F936F937F938F939F93A5
:101B7000AF93BF93EF93FF9386EE92E00E943A0EED
:101B8000FF91EF91BF91AF919F918F917F916F9155
:101B90005F914F913F912F910F900FBE0F901F902B
:101BA0001895E6EEF2E01382128288EE93E0A0E050
:101BB000B0E084839583A683B7838AEA92E0918319
:101BC000808385EC90E09587848784EC90E097870C
:101BD000868780EC90E0918B808B81EC90E0938BFA
:101BE000828B82EC90E0958B848B86EC90E0978BD7
:101BF000868B118E128E138E148E0895FC01818DAA
:101C0000228D90E0805C9F4F821B91098F739927F2
:101C10000895FC01918D828D981731F0828DE80F27
:101C2000F11D858D90E008958FEF9FEF0895FC01E1
:101C3000918D828D981761F0A28DAE0FBF2FB11DCF
:101C40005D968C91928D9F5F9F73928F90E0089527
:101C50008FEF9FEF0895FC01538D448D252F30E0C9
:101C6000842F90E0821B930B541710F0CF960895A9
:101C700001970895FC01A48DA80FB92FB11DA35A97
:101C8000BF4F2C91848D90E001968F739927848F9C
:101C9000A689B7892C93A089B1898C9183708064BF
:101CA0008C93938D848D981306C00288F389E02D60
:101CB00080818F7D80830895CF93DF93EC01888DA1
:101CC0008823B9F0AA89BB89E889F9898C9185FDB7
:101CD00003C0808186FD0DC00FB607FCF7CF8C9145
:101CE00085FFF2CF808185FFEDCFCE010E943A0EB5
:101CF000E9CFDF91CF910895EF92FF920F931F9359
:101D0000CF93DF93EC01F62E81E0888F9B8D8C8D35
:101D100098131AC0E889F989808185FF15C09FB79B
:101D2000F894EE89FF896083E889F989808183705E
:101D3000806480839FBF81E090E0DF91CF911F910D
:101D40000F91FF90EF9008950B8D10E00F5F1F4FE4
:101D50000F731127E02E8C8D8E110CC00FB607FC6F
:101D6000FACFE889F989808185FFF5CFCE010E94FD
:101D70003A0EF1CFEB8DEC0FFD2FF11DE35AFF4F23
:101D8000F0829FB7F8940B8FEA89FB89808180628B
:101D9000D0CFCF92DF92EF92FF921F93CF93DF933A
:101DA000EC016A017B01122FE889F98982E08083C6
:101DB000C11481EED806E104F104A1F060E079E0FD
:101DC0008DE390E0A70196010E942E0F215031096A
:101DD000410951095695479537952795211580E179
:101DE000380798F0E889F989108260E874E88EE194
:101DF00090E0A70196010E942E0F21503109410960
:101E000051095695479537952795EC85FD85308383
:101E1000EE85FF852083188EEC89FD891083EA8981
:101E2000FB89808180618083EA89FB898081886069
:101E30008083EA89FB89808180688083EA89FB89C5
:101E400080818F7D8083DF91CF911F91FF90EF90F4
:101E5000DF90CF900895F8940C946C0FA1E21A2EA5
:101E6000AA1BBB1BFD010DC0AA1FBB1FEE1FFF1F3E
:101E7000A217B307E407F50720F0A21BB30BE40B8E
:101E8000F50B661F771F881F991F1A9469F76095D5
:101E90007095809590959B01AC01BD01CF0108958F
:101EA0000E945D0FB7FF0895821B930B0895EE0FFC
:101EB000FF1F0590F491E02D0994A29FB001B39FFC
:101EC000C001A39F700D811D1124911DB29F700D43
:0C1ED000811D1124911D0895F894FFCF8E
:101EDC0000000000000000000000000000000000F6
:101EEC0000000000000000000000000000000000E6
:101EFC0000000000000000000000000000000000D6
:101F0C0000000000000000000000000000000000C5
:101F1C0000000000000000000000000000000000B5
:101F2C0000000000000000000000000000000000A5
:101F3C000000000000000000FF000059020000D764
:101F4C0002FFFFFFFFFFFFFFFF0000040200000085
:101F5C0000720B0000720B0000020D02000000006A
:101F6C00A1070000A1070000021602000000009467
:101F7C0004000094040000020000000304000000B0
:101F8C000204000000010401000000FFFF0000013A
:101F9C000000000000000000000000000000000431
:101FAC0000FF00000400FF00000D0C0D0CFF5B7423
:101FBC0061736B415F005D0009002D2D3E005B7469
:101FCC0061736B425F005B7461736B435F009901DB
:101FDC008A017B01B70171080A02FD0500B7017186
:101FEC00081302FD0501B70171081C02FD0502B2C0
:101FFC0001AD01A801D7024B023D022F0259028507
:10200C000317048000F30900000203010083039509
:10201C000380004C0A0000010201008703E70480E2
:10202C0000960A000000010100150497045000A559
:10203C000B000003000100D401CF010001010101DC
:10204C000101001207E006E906C20662045F064FB2
:10205C00048806610706060E06140851074908781D
:10206C00077A08C107AE080106FD089B075B0995B6
:10207C0009DD070D0A00000000007C0E5C0C2B0E25
:08208C005C0EFE0D170E090E9B
:00000001FF
