:100000000C945E000C94DF0D0C94060E0C9486008C
:100010000C9486000C9486000C9486000C94860048
:100020000C9486000C9486000C9486000C94860038
:100030000C9486000C9486000C9486000C94860028
:100040000C94C90C0C9486000C942A0F0C94570F36
:100050000C9486000C9486000C9486000C94860008
:100060000C9486000C948600000000080002010039
:100070000003040700000000000000000102040863
:100080001020408001020408102001020408102002
:10009000040404040404040402020202020203032E
:1000A0000303030300000000250028002B000000CC
:1000B0000000240027002A00D90D7D0F11241FBE47
:1000C000CFEFD8E0DEBFCDBF12E0A0E0B1E0E8E5C1
:1000D000F2E202C005900D92A03FB107D9F724E0EB
:1000E000A0EFB2E001C01D92A93AB207E1F710E01B
:1000F000CEE5D0E004C02197FE010E942411CC354A
:10010000D107C9F70E94CA0D0C94D7100C940000B7
:10011000E2E10E942D010895E9E00E942D01089579
:10012000EAE00E942D010895E1E00E942D0108956A
:10013000E3E00E942D010895E7E00E942D0108955B
:10014000E5E00E942D010895E0E00E942D01089550
:10015000E2E00E942D010895E4E00E942D0108953F
:10016000ECE00E942D010895E8E00E942D01089521
:10017000EEE00E942D010895E4E10E942D01089512
:10018000E0E10E942D010895E7E10E942D0108950C
:10019000E6E00E942D010895EBE00E942D010895F4
:1001A000EDE00E942D010895EFE00E942D010895D9
:1001B000E1E10E942D010895E3E10E942D010895DF
:1001C000E5E10E942D010895E6E10E942D010895C8
:1001D00021968A929A92AA92BA92CA92DA92EA9254
:1001E000FA920A931A932197E0916901F0916A01BA
:1001F0000080F181E02DC083D1830895C0916B010F
:10020000D0916C01E881F981C081D1812196199149
:100210000991F990E990D990C990B990A9909990D5
:100220008990219708952F903F90E7E6F1E0CDB7B0
:10023000DEB7EDBFFEBF3F922F9208952F903F9003
:10024000CDBFDEBF3F922F920895E0E80E942D01BE
:100250000895E0E40E942D0108952F923F924F925D
:100260005F926F927F922FB62F92CF93DF937E2E65
:10027000F894E0910001EF5FE0930001E13011F4A8
:100280000E941301E0E0E0937901E72DE07849F066
:100290000E944805F0917A01F17071F00E941904F2
:1002A0000BC0E72DEC3140F4EE0FF0E0E355FD4FCD
:1002B0000190F081E02D0995F0917901EF2FE17027
:1002C00059F0F27011F00E94E8008F938F2F0E9476
:1002D00063038F910E94FE00209100012150209322
:1002E0000001222311F40E941E01DF91CF912F9073
:1002F0002FBE7F906F905F904F903F902F9008950A
:10030000FC014081FB013081842F877090E0B0E0D8
:10031000A0E0B695A79597958795835E9C4FFC01C5
:100320008081242F281B21704670242B832F8770F7
:1003300090E0B0E0A0E0B695A79597958795835E8D
:100340009C4FFC018081932F981B91703670932BEA
:1003500041E050E0291710F050E040E0CA01089554
:10036000AF92BF92CF92DF92EF92FF920F931F93C3
:10037000CF93DF938C01CA01DB016A017B01F69404
:10038000E794D794C79482309105A105B10580F018
:10039000880F991FE801C80FD91F5601AA0CBB1C72
:1003A000A00EB11EBE01C5010E948001892B59F427
:1003B000DF91CF911F910F91FF90EF90DF90CF9041
:1003C000BF90AF90089598818981F5012081318196
:1003D0003983288390838183D701C601D0CF4F9280
:1003E0005F926F927F928F929F92AF92BF92CF92C5
:1003F000DF92EF92FF92CF93DF9300D000D000D036
:10040000CDB7DEB78D839E836A017B01AD81BE814E
:100410008C91282F30E050E040E029833A834B83D1
:100420005C8346015701880C991CAA1CBB1C2981BE
:100430003A814B815C81281539054A055B05A8F492
:1004400026960FB6F894DEBF0FBECDBFDF91CF91D9
:10045000FF90EF90DF90CF90BF90AF909F908F90E4
:100460007F906F905F904F900895240135013FEF8A
:10047000431A530A630A730A89819A81AB81BC814A
:1004800084159505A605B70590F0B201660F771F94
:10049000AD81BE816A0F7B1FC401880F991F8A0F2F
:1004A0009B1F0E948001892B11F0530142013401EE
:1004B000660C771CED81FE816E0E7F1ECC0CDD1C60
:1004C000CE0EDF1EB301C6010E948001892B09F404
:1004D000B7CFD6019C9111968C911197F301208191
:1004E00031812D933C93908381837501640199CF71
:1004F000EFE4F4E040814F5F408350E070E060E063
:10050000E82FEE0FFF0BEA57FD4F0190F081E02D31
:10051000238530E0F901E35EFC4F90819150908398
:10052000FA01EE0FFF1FE15BFB4F220F331F9170AB
:10053000922B908381838FE494E00C94B001EFE4DC
:10054000F4E040814F5F408350E070E060E0FA01EA
:10055000EE0FFF1FE15BFB4FA82FAA0FBB0BAE579F
:10056000BD4F0D90BC91A02D13969C9190838183DB
:100570008FE494E00C94B001CF93DF93EFE4F4E0C8
:1005800080819FEF980F9083D281C38190E0880F84
:10059000991F815B9B4FDC018D919C91938382839A
:1005A00041E050E060E070E0CF010E94EF018D2F4C
:1005B0009C2FDF91CF9108958091F002811115C099
:1005C00040917101509172016091730170917401B9
:1005D0004F3F9FEF59076907790751F01416150629
:1005E0001606170624F081E0089584E0089582E05D
:1005F0000895CF93DF93880F990BFC01EA57FD4FC5
:100600000190F081E02D0084F185E02D3097E1F03C
:100610002281211119C021E022838E579D4FEC01C8
:10062000A881B98113968C9113978183208130E042
:10063000F901E35EFC4F808181508083220F331FDC
:100640008170822B13968C93DF91CF910895CF9375
:10065000DF93880F990BFC01EA57FD4F0190F08161
:10066000E02D0084F185E02D309761F0228121306A
:1006700049F412828E579D4FEC01A881B981818186
:1006800013968C93DF91CF9108958091750190918D
:100690007601A0917701B09178014091710150915C
:1006A00072016091730170917401481759076A07CC
:1006B0007B0741F0E0916F01F091700121E024830C
:1006C0000C949F020895CF93DF93D0E0C0E088237D
:1006D00089F0C0916901D0916A01E0916D01F091BA
:1006E0006E018481833031F081E0848380917101D7
:1006F0000E949F02E0916F01F0917001F0936E01F2
:10070000E0936D0180916B0190916C0190936A016F
:100710008093690180917501309176012091770174
:10072000909178018093710130937201209373014D
:100730009093740192E094830E94F902CE01DF91BC
:10074000CF910895809171010E942703E0916D017E
:10075000F0916E018281882319F085E084830895E9
:1007600014820895CF93DF93282F220F330BF901C2
:10077000EE57FD4FC081D1819A812A573D4FD90153
:10078000ED91FC912485921780F4911105C095E0BC
:100790009C8391E090937A010E9478028A818F5F16
:1007A0008A8380E0DF91CF91089584E0FBCFE82F2A
:1007B000EE0FFF0BEE57FD4F0190F081E02D1182FF
:1007C00010820C94780D1F93CF93DF930E94BC028C
:1007D000182F892F492F092E000C550B660B770B0C
:1007E000409375015093760160937701709378017F
:1007F000292F220F330BF901EE57FD4FC081D18114
:10080000D0937001C0936F012A573D4FF9012081A9
:10081000318130936C0120936B019C81953019F4E8
:100820000E94D7031B8310927A01DF91CF911F9111
:100830000895E0917501F0917601EE0FFF1FEE57DC
:10084000FD4F0190F081E02D909151048381891733
:1008500040F40E9445030E94E30383E08093790102
:10086000089580E0FBCF81E0809379010C94E3034D
:10087000CF93DF93C1E0D0E001C0CC0F8A95EAF7B7
:1008800081E00E94B2038091AB028C2319F080E0DA
:100890000E94B2038091AA02C82359F08091770286
:1008A0009091780221E0FC012687DF91CF910C9492
:1008B0008604DF91CF9108950E94290681110E943C
:1008C0004906E0916D01F0916E0180819181892B43
:1008D00021F0809171010E9403080C946E070E9420
:1008E000290681110E944906E0916D01F0916E0187
:1008F00080819181892B21F0809171010E940308F0
:100900000C94590781E08093F1020895CF92DF9211
:10091000EF92FF920F931F93CF93DF93FC01A0817F
:10092000B1810D90BC91A02D54968D919C915597BD
:10093000009709F445C0428553856485758530E08C
:1009400020E0EC01CA84DB84EC84FD844C155D0559
:100950006E057F0508F049C08C011383028335833F
:1009600024830115110519F0E801FD83EC8321159D
:10097000310509F444C0E901FB83EA835696CD9121
:10098000DC9157970A851B852C853D855096CD9027
:10099000DD90ED90FC9053970C151D052E053F053D
:1009A00098F5C416D506E606F70628F04017510755
:1009B0006207730788F45796FC93EE9356970CC022
:1009C0005596FC93EE9354975796FC93EE93569757
:1009D0001582148213821282DF91CF911F910F91A1
:1009E000FF90EF90DF90CF900895EC010A811B817A
:1009F0009C010115110509F4B0CFC801A2CF55968D
:100A0000FC93EE935497BACFC416D506E606F706C4
:100A100018F7CCCFCF93DF93FC01A081B1810D906B
:100A2000BC91A02DC281D38154968D919C915597F4
:100A30008E179F0721F45596DC93CE9354975696C4
:100A40008D919C9157978E179F0721F45796DC93B1
:100A5000CE935697209721F0848195819D838C8336
:100A60000480F581E02D309711F0D383C283569630
:100A70008D919C915797892B41F454968D919C911F
:100A8000559757969C938E935697DF91CF910895E3
:100A9000EF92FF920F931F93CF93DF93EC0180911E
:100AA000F102882309F4A8C08C859D85AE85BF8599
:100AB0000196A11DB11D8C879D87AE87BF87488198
:100AC00059816A817B8184179507A607B70709F0CA
:100AD00093C088899989AA89BB890196A11DB11DF6
:100AE0004C815D816E817F81481759076A077B07BA
:100AF00018F480E090E0DC01888B998BAA8BBB8B8B
:100B00001C861D861E861F860E891F8901151105EC
:100B100009F472C0F80142855385648575854817CC
:100B200059076A077B0709F067C09F010280F381BC
:100B3000E02D309749F0428553856485758584178B
:100B40009507A607B70789F3D80114968D919C9154
:100B5000009729F0DC011396FC93EE9312973097DF
:100B600011F0958384838C899D890817190711F4E6
:100B7000FD8BEC8B309709F446C0FF8BEE8BF901AF
:100B8000138212827801D80112960D911C9113974D
:100B9000ED91FC910280F381E02DC7010995F701E9
:100BA00086819781A085B1850097A105B10581F166
:100BB0004285538564857585840F951FA61FB71FD1
:100BC0004C815D816E817F81481759076A077B07D9
:100BD00040F44095509560957095840F951FA61F21
:100BE000B71FF70182879387A487B587C7010E9443
:100BF00086040115110531F6DF91CF911F910F91F8
:100C0000FF90EF9008958C899D899F8B8E8BB7CF35
:100C10001686EFCFFC0182810C94B2030E94290654
:100C2000809168010895809368010E9438040E94B1
:100C300082040C9433040C94770DCF93C82F0E9438
:100C4000DC02811102C00E94C00D8C2FCF910C9448
:100C50008C002091FE022130D1F04091F60250919B
:100C6000F7026091F8027091F9028091FA02909176
:100C7000FB02A091FC02B091FD02842B952BA62BC8
:100C8000B72B21E0892B8A2B8B2B09F420E0822FB4
:100C900008951092FE021092FA021092FB02109236
:100CA000FC021092FD021092F6021092F7021092CE
:100CB000F8021092F9028091F2029091F302A09151
:100CC000F402B091F5028093FF0290930003A09389
:100CD0000103B093020308950E94C30D8091FF02A7
:100CE00090910003A0910103B09102030196A11D10
:100CF000B11D8093FF0290930003A0930103B09372
:100D000002038091FA029091FB02A091FC02B09143
:100D1000FD020196A11DB11D8093FA029093FB0282
:100D2000A093FC02B093FD0208958091FA02909185
:100D3000FB02A091FC02B091FD020097A105B10554
:100D400069F14091FF02509100036091010370919D
:100D5000020341505109610971094093FF02509308
:100D6000000360930103709302030197A109B10985
:100D70008093FA029093FB02A093FC02B093FD02D1
:100D80008091FF0290910003A0910103B0910203B2
:100D9000892B8A2B8B2B11F40C94C10D0895809113
:100DA000FA029091FB02A091FC02B091FD024091E9
:100DB000F6025091F7026091F8027091F902842BCB
:100DC000952BA62BB72B892B8A2B8B2B29F40E94D2
:100DD000C30D81E08093FE0208958091FE02882376
:100DE00021F01092FE020C94C10D08950E94C70DCF
:100DF0008091FF0290910003A0910103B091020342
:100E00000196A11DB11D8093FF0290930003A09352
:100E10000103B09302038091F6029091F702A09132
:100E2000F802B091F9020196A11DB11D8093F6025E
:100E30009093F702A093F802B093F902089580917D
:100E4000F6029091F702A091F802B091F902009792
:100E5000A105B10569F14091FF0250910003609135
:100E600001037091020341505109610971094093D6
:100E7000FF025093000360930103709302030197F4
:100E8000A109B1098093F6029093F702A093F802AA
:100E9000B093F9028091FF0290910003A0910103A9
:100EA000B0910203892B8A2B8B2B11F40C94C50D66
:100EB00008950E942906811183E10895CF93C82FD8
:100EC0000E9429068C2F0E94B203C82F80917A01BC
:100ED00081110E9419048C2FCF910895CF930E9405
:100EE0002906C82F8111C3E1E0916D01F0916E01D7
:100EF0008281815082830E94A20381E080937901E4
:100F00000E94E3038C2FCF910895CF93C82F0E94A6
:100F10002906E0916D01F0916E01828181508283FA
:100F20008C2F0E94B203C82F81110AC00E94A20315
:100F300081E0809379010E94E3038C2FCF91089583
:100F4000E0916D01F0916E0182818F5F8283F5CF18
:100F5000CF930E942906C82F8111C3E180917101AE
:100F60000E9427030E9419048091710190917201DF
:100F7000A0917301B0917401409175015091760177
:100F8000609177017091780184179507A607B707DC
:100F900011F40E94F9028C2FCF910895CF93DF9323
:100FA000EC010E942906811183E140917101509169
:100FB0007201609173017091740114161506160682
:100FC000170624F04883DF91CF9108959091B601E0
:100FD0009883F9CF0F931F93CF93C82F8B010E9453
:100FE0002906811183E1EC2FEE0FFF0BEE57FD4F29
:100FF0000190F081E02D94819370F8019083CF915E
:101000001F910F910895E82FEE0FFF0BEE57FD4F44
:10101000A081B181ED91FC911197309789F01D92DB
:101020001C928091B601DF010380F481E02D1296BD
:101030008C93129714961C921E921397309799F7DF
:101040000895CF93C82F0E942906811183E1EC2FC8
:10105000F0E0EE0FFF1FEA55FD4F0190F081E02D0B
:10106000909171019283A0916D01B0916E012D91CB
:101070003C911197348323831196FC93EE9313963E
:101080009C911397918320819695921768F430E094
:10109000F901E35EFC4F908191509083220F331F42
:1010A0009170922B13969C93CF910895CF93DF93D9
:1010B000C82F0E942906D82F8111D3E1EC2FF0E030
:1010C000EE0FFF1FEA55FD4F0190F081E02DA0913A
:1010D0006D01B0916E01818113968C93139783817A
:1010E00094818D939C93148213828091B6018283A4
:1010F0000E9419048D2FDF91CF910895DC01ED91AD
:10110000FC9184819581DC01ED91FC9109941F9300
:10111000CF93DF93182FEB010E942906811183E101
:10112000E12FF0E0EE0FFF1FE958FD4F0190F08135
:10113000E02D0190F081E02D0190F081E02D4081C3
:101140005181628173814C835D836E837F8344818F
:10115000558166817781488359836A837B83408583
:10116000518562857385488759876A877B87DF91B8
:10117000CF911F9108958F929F92AF92BF92CF927D
:10118000DF92EF92FF920F931F93CF93C82F8B01A3
:101190000E942906811183E1EC2FF0E0EE0FFF1F82
:1011A000E958FD4F0190F081E02D9685913081F551
:1011B00042855385648575850190F081E02D01900D
:1011C000F081E02DC088D188E288F3884C155D0558
:1011D0006E057F0540F484809580A680B780480D19
:1011E000591D6A1D7B1D4C195D096E097F09F801A7
:1011F0004083518362837383CF911F910F91FF903E
:10120000EF90DF90CF90BF90AF909F908F90089518
:1012100085E0F2CFAF92BF92CF92DF92EF92FF9232
:101220000F931F93CF93DF93A82E6A017B01B22EF9
:10123000D32F0E942906C82F8111C3E1EA2DF0E0C7
:10124000EE0FFF1FE958FD4F0190F081E02D8685DC
:1012500081113CC0A081B1810D90BC91A02D509610
:101260004D915D916D917C915397C40ED51EE61EF4
:10127000F71E14968D919D910D90BC91A02D8C150B
:101280009D05AE05BF0548F4C81AD90AEA0AFB0A4B
:1012900081E0C81AD108E108F108C286D386E48645
:1012A000F58606831783B086D18781E08687CF01D4
:1012B0000E9486048C2FDF91CF911F910F91FF9098
:1012C000EF90DF90CF90BF90AF900895C7E0F2CF3E
:1012D000AF92BF92CF92DF92EF92FF920F931F9344
:1012E000CF93DF93C82F5A016B0179010E94290621
:1012F000D82F8111D3E1EC2FF0E0EE0FFF1FE9585A
:10130000FD4F0190F081E02D8685811119C0A286E4
:10131000B386C486D58606831783E086F18681E08E
:101320008687CF010E9486048D2FDF91CF911F9178
:101330000F91FF90EF90DF90CF90BF90AF90089506
:10134000D7E0F2CF0F931F93CF93DF93C82F0E9464
:101350002906D82F8111D3E1EC2FF0E0EE0FFF1F0B
:10136000E958FD4F00811181F8018685813059F4DB
:10137000C8010E940A05F80116868D2FDF91CF91D2
:101380001F910F910895D5E0F8CF60E08EE00E94A4
:101390005F0C26E040E052EC61E070E080E393E017
:1013A0000C947510CF93DF9367EB71E080E393E0CB
:1013B0000E94710E80910B0390910C03837099270A
:1013C000892B09F06EC069EC71E080E393E00E9424
:1013D000710E62ED71E080E393E00E94710E609106
:1013E0001103709112034AE050E080E393E00E9401
:1013F000230F6EE172E080E393E00E94710E8EE0B5
:101400000E945B0DEC01809111039091120362EF39
:1014100071E0853091050CF040C0880F991FFC01E8
:10142000ED5EFC4FD183C0836EED71E080E393E00D
:101430000E94710E4AE050E0BE0180E393E00E94FA
:10144000230F6EE172E080E393E00E94710E8091C1
:10145000110390911203019690931203809311034C
:101460002A97CC3ED34008F455C181E090E0909398
:101470000E0380930D0363EE71E080E393E00E941E
:10148000710E60910D0370910E034AE050E080E30D
:1014900093E00E94230F67EC71E080E393E00E94E9
:1014A000710E80910B0390910C0365E070E00E9437
:1014B000DA10892B09F05CC06FEF71E080E393E0F4
:1014C0000E94710E68E072E080E393E00E94710E6A
:1014D00060910D0370910E034AE050E080E393E0C9
:1014E0000E94230F6EE172E080E393E00E94710E90
:1014F0006FE072E080E393E00E94710E60910F0351
:10150000709110034AE050E080E393E00E94230FC3
:1015100067EC71E080E393E00E94710E20910F036D
:101520003091100380910D0390910E03213031050D
:1015300009F0F5C0009709F0F2C066E172E080E3BF
:1015400093E00E94710E8091090390910A03019625
:1015500090930A038093090380FFECC061E08DE063
:101560000E949B0C67EC71E080E393E00E94710E97
:1015700080910B0390910C0364E170E00E94DA10FB
:10158000892B09F05AC166E272E080E393E00E9481
:10159000710EC0911103D0911203809113039091A9
:1015A00014039093060380930503909304038093A0
:1015B00003036FE272E080E393E00E94710E60919A
:1015C0000503709106034AE050E080E393E00E9437
:1015D000230F6EE172E080E393E00E94710E6AE3F4
:1015E00072E080E393E00E94710E609103037091BA
:1015F00004034AE050E080E393E00E94230F10923E
:1016000008031092070380910703909108038C1739
:101610009D070CF0AFC064E472E080E393E00E94A9
:10162000710EE0910703F0910803EE0FFF1FED5ECE
:10163000FC4F608171814AE050E080E393E00E94BA
:10164000230FE0910703F0910803EE0FFF1FED5EFB
:10165000FC4F80819181209105033091060328176A
:10166000390724F490930603809305032091030324
:10167000309104032817390724F0909304038093D2
:101680000303809111039091120301979093120329
:10169000809311036BE472E080E393E00E94710E8B
:1016A00060911103709112034AE050E080E393E0EF
:1016B0000E94230F6FE272E080E393E00E94710EBC
:1016C00060910503709106034AE050E080E393E0E7
:1016D0000E94230F6EE172E080E393E00E94710E9E
:1016E0006AE372E080E393E00E94710E609103036D
:1016F000709104034AE050E080E393E00E94230FDE
:1017000080910703909108030196909308038093BA
:10171000070379CF10920E0310920D03ACCE009701
:1017200059F4232B09F01ECF6BE172E080E393E0C4
:101730000E94710E60E013CF019709F013CF60E2B1
:1017400072E080E393E00E94710E80910903909112
:101750000A03019690930A03809309039C01237066
:101760003327232B09F0FECE87709927892B09F4A4
:10177000F5CEE0CF64E572E080E393E00E94710E65
:1017800060910503709106034AE050E080E393E026
:101790000E94230F6EE172E080E393E00E94710EDD
:1017A0006AE372E080E393E00E94710E60910303AC
:1017B000709104034AE050E080E393E00E94230F1D
:1017C00067EC71E080E393E00E94710E68E672E0DE
:1017D00080E393E00E94710E6091110370911203F7
:1017E0004AE050E080E393E00E94230F80910503DC
:1017F000909106032091030330910403821B930B05
:10180000853F914034F11092100310920F036EE661
:1018100072E080E393E00E94710E60910F0370917B
:1018200010034AE050E080E393E00E94230F67EC4E
:1018300071E080E393E00E94710E80910B03909120
:101840000C03019690930C0380930B03DF91CF91CF
:10185000089581E090E09093100380930F03D7CF19
:101860008FE891E00C9425010895843099F038F4C4
:101870008230C1F0833041F0813081F008958730AB
:10188000A1F08830C1F00895809180008F77809317
:1018900080000895809180008F7DF9CF84B58F7787
:1018A00084BD089584B58F7DFBCF8091B0008F7784
:1018B0008093B00008958091B0008F7DF9CFCF93D1
:1018C000DF9390E0FC01E458FF4F249180579F4F35
:1018D000FC0184918823C9F090E0880F991FFC01D6
:1018E000E255FF4FA591B491FC01EC55FF4FC59116
:1018F000D49161110DC09FB7F8948C9120958223EB
:101900008C938881282328839FBFDF91CF910895EE
:10191000623051F49FB7F8943C91822F80958323D5
:101920008C93E8812E2BEFCF8FB7F894EC912E2B70
:101930002C938FBFEACF1F93CF93DF93162F282FBF
:1019400030E0F901E859FF4F8491F901E458FF4F65
:10195000D491F901E057FF4FC491CC23A1F081113C
:101960000E94350CEC2FF0E0EE0FFF1FEC55FF4FFF
:10197000A591B4918FB7F894EC91111108C0D0954E
:10198000DE23DC938FBFDF91CF911F910895DE2B73
:10199000F8CF1F920F920FB60F9211242F933F93FF
:1019A0004F935F936F937F938F939F93AF93BF9367
:1019B000EF93FF938091270390912803A09129032F
:1019C000B0912A033091260323E0230F2D3798F599
:1019D0000196A11DB11D20932603809327039093A8
:1019E0002803A0932903B0932A0380912B0390919D
:1019F0002C03A0912D03B0912E030196A11DB11DC2
:101A000080932B0390932C03A0932D03B0932E036C
:101A10000E94300CFF91EF91BF91AF919F918F91F8
:101A20007F916F915F914F913F912F910F900FBEDA
:101A30000F901F90189526E8230F0296A11DB11D47
:101A4000CACF84B5826084BD84B5816084BD85B50C
:101A5000826085BD85B5816085BDEEE6F0E0808160
:101A600081608083E1E8F0E0108280818260808381
:101A7000808181608083E0E8F0E080818160808304
:101A8000E1EBF0E0808184608083E0EBF0E0808136
:101A900081608083EAE7F0E08081846080838081D8
:101AA0008260808380818160808380818068808380
:101AB0001092C10008958E3008F08E502091B1012F
:101AC00090E4299F900111248770822B80937C00E1
:101AD00080917A00806480937A0080917A0086FDFC
:101AE000FCCF80917800909179000895FFCFFFCFCF
:101AF000CF93DF93E82FEE0FFF0BEA57FD4FA08146
:101B0000B1811496ED91FC911597319712968D91B4
:101B10009C911397E80FF91F1D968C911D97EF016B
:101B20002197823051F58CEA90E080839883169655
:101B30009C91169717968C911797EF01229798838F
:101B4000219788832197CF010A97188221978C17B4
:101B50009D07D9F720E8EC012883EF012B977797B1
:101B600018822197EC17FD07D9F70D90BC91A02D95
:101B7000ED93FC93DF91CF91089588EC90E0D5CF61
:101B8000089578940895F894089578940895F894B1
:101B9000089508950E94210D0E94C90D0E94340CE1
:101BA0000E94C50980912F030E941D0690E080E0ED
:101BB00008958091AC0280932F03089508951F9299
:101BC0000F920FB60F9211242F933F934F935F9371
:101BD0006F937F938F939F93AF93BF93EF93FF93F5
:101BE000E091B201F091B3010995FF91EF91BF919E
:101BF000AF919F918F917F916F915F914F913F91A5
:101C00002F910F900FBE0F901F9018951F920F925B
:101C10000FB60F9211242F933F934F935F936F93BF
:101C20007F938F939F93AF93BF93EF93FF93E09135
:101C3000B401F091B5010995FF91EF91BF91AF917A
:101C40009F918F917F916F915F914F913F912F91D4
:101C50000F900FBE0F901F901895CF92DF92EF92CA
:101C6000FF920F931F93CF93DF937C016A0110E0E3
:101C700000E00C151D0581F0EB01D701ED91FC9101
:101C80000190F081E02D6991C7010995892B21F020
:101C90000F5F1F4FBE01EDCFC801DF91CF911F91A4
:101CA0000F91FF90EF90DF90CF900895CF93DF9347
:101CB000EC01DB01AB2B81F0FB0101900020E9F787
:101CC0003197AF01461B570BE881F9810280F38100
:101CD000E02DDF91CF91099490E080E0DF91CF91EA
:101CE00008950C94560EDC01ED91FC910190F08169
:101CF000E02D09946F927F928F929F92AF92BF9244
:101D0000CF92DF92EF92FF920F931F93CF93DF93C7
:101D1000CDB7DEB7A1970FB6F894DEBF0FBECDBF2B
:101D20003C01142F052F962E872E19A2223008F47D
:101D30002AE05E0181E2A80EB11CC22ED12CF12C4A
:101D4000E12C612F702F892D982DA70196010E94FB
:101D5000EE10812F902FA92DB82D122F032F942E26
:101D6000852E6A3014F5605DF50162935F018C1574
:101D70009D05AE05BF0528F7BF01C3010E94560EA1
:101D8000A1960FB6F894DEBF0FBECDBFDF91CF9105
:101D90001F910F91FF90EF90DF90CF90BF90AF9089
:101DA0009F908F907F906F900895695CDDCFCF9268
:101DB000DF92EF92FF920F931F93CF93DF93EC018B
:101DC0006A017B01C901892B81F4E881F9810190C5
:101DD000F081E02D642FCE01DF91CF911F910F9103
:101DE000FF90EF90DF90CF9009942A303105F1F405
:101DF0002AE0F7FE1BC06DE2CE010E94730E8C013B
:101E000044275527BA014C195D096E097F092AE05C
:101E1000CE010E947A0E800F911FDF91CF911F910A
:101E20000F91FF90EF90DF90CF900895B701A6013A
:101E3000CE01DF91CF911F910F91FF90EF90DF9036
:101E4000CF900C947A0E9A01AB01770F660B770B4B
:101E50000C94D70E2F932FB72F938F939F93EF93BD
:101E6000FF93E0914003F09141038081E0914603AC
:101E7000F091470382FD19C09081809149038F5FE3
:101E80008F7320914A03821741F0E0914903F0E0FB
:101E9000E05DFC4F958F80934903FF91EF919F91F7
:101EA0008F912F912FBF2F9118958081F6CF1F9280
:101EB0000F920FB60F9211242F933F934F935F937E
:101EC0006F937F938F939F93AF93BF93EF93FF9302
:101ED00080E393E00E94E60FFF91EF91BF91AF91F5
:101EE0009F918F917F916F915F914F913F912F9132
:101EF0000F900FBE0F901F901895E0E3F3E0138250
:101F0000128288EE93E0A0E0B0E084839583A683FC
:101F1000B78381EE92E09183808385EC90E0958792
:101F2000848784EC90E09787868780EC90E0918BA3
:101F3000808B81EC90E0938B828B82EC90E0958B90
:101F4000848B86EC90E0978B868B118E128E138E8D
:101F5000148E0895FC01818D228D90E0805C9F4F4E
:101F6000821B91098F7399270895FC01918D828DB1
:101F7000981731F0828DE80FF11D858D90E008955E
:101F80008FEF9FEF0895FC01918D828D981761F07E
:101F9000A28DAE0FBF2FB11D5D968C91928D9F5F6C
:101FA0009F73928F90E008958FEF9FEF0895FC014B
:101FB000538D448D252F30E0842F90E0821B930BAE
:101FC000541710F0CF96089501970895FC01A48D41
:101FD000A80FB92FB11DA35ABF4F2C91848D90E04B
:101FE00001968F739927848FA689B7892C93A0892E
:101FF000B1898C91837080648C93938D848D9813B8
:1020000006C00288F389E02D80818F7D808308954A
:10201000CF93DF93EC01888D8823B9F0AA89BB891F
:10202000E889F9898C9185FD03C0808186FD0DC00A
:102030000FB607FCF7CF8C9185FFF2CF808185FF2B
:10204000EDCFCE010E94E60FE9CFDF91CF91089549
:10205000EF92FF920F931F93CF93DF93EC01F62E35
:1020600081E0888F9B8D8C8D98131AC0E889F9893F
:10207000808185FF15C09FB7F894EE89FF89608342
:10208000E889F98980818370806480839FBF81E0C3
:1020900090E0DF91CF911F910F91FF90EF90089505
:1020A0000B8D10E00F5F1F4F0F731127E02E8C8DEB
:1020B0008E110CC00FB607FCFACFE889F989808130
:1020C00085FFF5CFCE010E94E60FF1CFEB8DEC0F2F
:1020D000FD2FF11DE35AFF4FF0829FB7F8940B8F4D
:1020E000EA89FB8980818062D0CFCF92DF92EF9224
:1020F000FF921F93CF93DF93EC016A017B01122FB4
:10210000E889F98982E08083C11481EED806E10470
:10211000F104A1F060E079E08DE390E0A701960181
:102120000E94EE10215031094109510956954795F9
:1021300037952795211580E1380798F0E889F989C6
:10214000108260E874E88EE190E0A70196010E9499
:10215000EE1021503109410951095695479537959F
:102160002795EC85FD853083EE85FF852083188ECD
:10217000EC89FD891083EA89FB89808180618083F5
:10218000EA89FB89808188608083EA89FB89808174
:1021900080688083EA89FB8980818F7D8083DF91DD
:1021A000CF911F91FF90EF90DF90CF900895F8941A
:1021B0000C942A1197FB072E16F4009407D077FD94
:1021C00009D00E94101107FC05D03EF4909581952E
:1021D0009F4F0895709561957F4F0895A1E21A2E43
:1021E000AA1BBB1BFD010DC0AA1FBB1FEE1FFF1FBB
:1021F000A217B307E407F50720F0A21BB30BE40B0B
:10220000F50B661F771F881F991F1A9469F7609551
:102210007095809590959B01AC01BD01CF0108950B
:10222000AA1BBB1B51E107C0AA1FBB1FA617B707FC
:1022300010F0A61BB70B881F991F5A95A9F7809518
:102240009095BC01CD010895EE0FFF1F0590F4910C
:08225000E02D0994F894FFCF82
:102258000000000000000000000000000000000076
:102268000000000000000000000000000000000066
:102278000000000000000000000000000000000056
:102288000000000000000000000000000000000046
:102298000000000000000000000000000000000036
:1022A8000000000000000000000000000000000026
:1022B8000000000000000000FF000098020000215C
:1022C80003FFFFFFFFFFFFFFFF0000790200000090
:1022D80000180000001800000002000000010401BE
:1022E800000000FFFF0000010000000000000000E7
:1022F800000000000000000200FF00000200FF00D4
:102308000001DE0DDE0DFF5B7461736B2056205FEC
:1023180073746172743A5D0A005B7461736B535D28
:102328000A006974656D436F756E743A2000413018
:102338003A20006572726F725F696E7374616E74B1
:102348003A006572726F725F627566666572005BED
:102358007461736B565D0A006572726F723A006140
:102368006C61726D3A004C4F5709004F46460900A0
:102378004641535409005B7461736B425D0A000A5D
:102388004D61785F76616C7565004D696E5F766149
:102398006C7565000A646174613A000A20636F75A0
:1023A8006E743A000A47656E6572616C3A204D6139
:1023B800785F76616C7565006974656D3A000961CE
:1023C8006C61726D3A20007B018F017E087F020AE2
:1023D80006008A0121038A0298024D04CD03800079
:1023E800D209000000010100570459045000760D7D
:1023F800000001000100AC01A7010101001F07ED69
:1024080006F606CF066F046C065C0495066E071385
:10241800061B0621085E07560885078708CE07BBF6
:10242800080E060A09A8076809A209EA07000000B9
:102438000028102D0ED70F0810AA0FC30FB50F00D4
:00000001FF
