:100000000C9463000C94ED0E0C94140F0C948B0064
:100010000C948B000C948B000C948B000C948B0034
:100020000C948B000C948B000C948B000C948B0024
:100030000C948B000C948B000C948B000C948B0014
:100040000C94DE0D0C948B000C941B100C944D1032
:100050000C948B000C948B000C948B000C948B00F4
:100060000C948B000C948B0000000008000201002F
:100070000003040700000000000000000102040863
:100080001020408001020408102001020408102002
:10009000040404040404040402020202020203032E
:1000A00003030303000000002300260029000000D2
:1000B0000000250028002B0000000000240027007D
:1000C0002A00E70E731011241FBECFEFD8E0DEBF69
:1000D000CDBF13E0A0E0B1E0E0E0F4E202C00590A3
:1000E0000D92A036B107D9F727E0A0E6B3E001C032
:1000F0001D92AB3AB207E1F710E0C3E6D0E004C0CE
:100100002197FE010E94F811C136D107C9F70E945C
:10011000D80E0C94D3110C940000E4E10E9442012B
:100120000895E2E10E9442010895EAE00E9442013E
:100130000895E1E00E9442010895E3E00E94420137
:100140000895E7E00E9442010895E5E00E9442011F
:100150000895E0E00E9442010895E2E00E94420119
:100160000895E4E00E9442010895ECE00E944201FB
:100170000895EBE10E9442010895EEE00E944201E1
:100180000895E8E00E9442010895E0E10E944201E2
:100190000895EAE10E9442010895E6E00E944201CA
:1001A0000895E8E10E9442010895E9E00E944201B9
:1001B0000895EBE00E9442010895EDE00E944201A3
:1001C0000895EFE00E9442010895E1E10E9442019A
:1001D0000895E3E10E9442010895E5E10E94420191
:1001E0000895E7E10E9442010895E9E10E94420179
:1001F0000895E6E10E944201089521968A929A921A
:10020000AA92BA92CA92DA92EA92FA920A931A934C
:100210002197E0916901F0916A010080F181E02D60
:10022000C083D1830895C0916B01D0916C01E881A6
:10023000F981C081D181219619910991F990E990B4
:10024000D990C990B990A9909990899021970895D3
:100250002F903F90E7E6F1E0CDB7DEB7EDBFFEBFF0
:100260003F922F9208952F903F90CDBFDEBF3F92D7
:100270002F920895E0E80E9442010895E0E40E9470
:10028000420108952F923F924F925F926F927F9218
:100290002FB62F92CF93DF937E2EF894E09100013A
:1002A000EF5FE0930001E13011F40E942801E0E0EB
:1002B000E0937901E72DE07849F00E949605F091EE
:1002C0007A01F17071F00E9449040BC0E72DEC3106
:1002D00040F4EE0FF0E0EB5EFC4F0190F081E02D7A
:1002E0000995F0917901EF2FE17059F0F27011F05A
:1002F0000E94FD008F938F2F0E9491038F910E9487
:10030000130120910001215020930001222311F4B8
:100310000E943301DF91CF912F902FBE7F906F907D
:100320005F904F903F902F900895CF92DF92EF9281
:10033000FF920F931F93DC01EC91DB012C918E2F28
:100340008170C82ED12CE12CF12C8E2F8F7090E073
:10035000A0E0B0E0B695A79597958795DC01A058E9
:10036000BC4F8C91C81AD108E108F108EE70422FF9
:10037000417050E060E070E0822F8F7090E0A0E06C
:10038000B0E0B695A79597958795DC01A058BC4F2E
:100390008C91481B510961097109822F8E70970158
:1003A000860101701127222733270E2B4170552714
:1003B00066277727482B81E090E00417150726076A
:1003C000370710F080E090E01F910F91FF90EF90C1
:1003D000DF90CF9008958F929F92AF92BF92EF924D
:1003E000FF920F931F93CF93DF937C014A015B0130
:1003F000B694A7949794879442305105610571058E
:10040000E0F0440F551F8701040F151FE401CC0FC6
:10041000DD1FCE0DDF1DB801CE010E949501892B95
:1004200061F0F801908181812881398131832083B5
:1004300098838983B501A401DBCFDF91CF911F9110
:100440000F91FF90EF90BF90AF909F908F90089585
:100450004F925F926F927F928F929F92AF92BF92D4
:10046000CF92DF92EF92FF920F931F93CF93DF9380
:1004700000D000D000D0CDB7DEB78C016A017B017F
:10048000DC018C91282F30E040E050E029833A8352
:100490004B835C8346015701880C991CAA1CBB1C2A
:1004A00029813A814B815C81281539054A055B0514
:1004B00008F442C0240135013FEF431A530A630A8E
:1004C000730A89819A81AB81BC8184159505A60543
:1004D000B70580F0B201660F771F600F711FC4016E
:1004E000880F991F800F911F0E949501892B11F091
:1004F000530142013401660C771C600E711ECC0C56
:10050000DD1CD801AC0DBD1DBE83AD83B301CD0193
:100510000E949501892B81F0ED81FE81908181817E
:10052000D3012D913C911197318320839C93119697
:100530008C9375016401AECF26960FB6F894DEBF9A
:100540000FBECDBFDF91CF911F910F91FF90EF9024
:10055000DF90CF90BF90AF909F908F907F906F90E3
:100560005F904F900895E1E4F6E040814F5F408353
:1005700050E060E070E0E82FEE0FFF0BEC53FD4F12
:100580000190F081E02D238530E0F901E058FC4F27
:10059000908191509083FA01EE0FFF1FEF5BF94FAE
:1005A000220F331F9170292B2083818381E496E0F1
:1005B0000C94EB01E1E4F6E040814F5F408350E0B2
:1005C00060E070E0E82FEE0FFF0BE454FD4F019068
:1005D000F081E02D9381FA01EE0FFF1FEF5BF94FE1
:1005E0009083818381E496E00C94EB01CF93DF93B9
:1005F000E1E4F6E080819FEF980F9083D281C38180
:1006000090E0880F991FDC01AF5BB94F8D919C91F1
:100610009383828341E050E060E070E0CF010E946C
:1006200028028D2F9C2FDF91CF9108958091710129
:1006300090917201A0917301B09174018F3F2FEFDF
:100640009207A207B20731F00397A105B10524F480
:1006500081E0089580E0089582E00895880F990B65
:10066000FC01EC53FD4F0190F081E02D0084F185F9
:10067000E02D3097E9F0228121111AC021E0228378
:10068000DC01A454BD4F0D90BC91A02D13968C910C
:1006900013978183808190E0FC01E058FC4F20811A
:1006A00021502083880F991F2170822B13968C93E1
:1006B0000895880F990BFC01EC53FD4F0190F081D8
:1006C000E02D0084F185E02D309761F0228121300A
:1006D00049F412822181FC01E454FD4F0190F08124
:1006E000E02D238308958091750190917601A0916A
:1006F0007701B09178014091710150917201609140
:10070000730170917401481759076A077B0741F01C
:10071000E0916F01F091700121E024830C94DA02E2
:100720000895CF93DF93882391F0C0916901D09110
:100730006A01E0916D01F0916E018481833049F08E
:1007400081E08483809171010E94DA0202C0C0E0DE
:10075000D0E0E0916F01F0917001F0936E01E093B1
:100760006D0180916B0190916C0190936A0180936F
:100770006901809175013091760120917701909106
:1007800078018093710130937201209373019093EB
:10079000740192E094830E942E03CE01DF91CF91E9
:1007A0000895809171010E945903E0916D01F091CB
:1007B0006E018281882319F085E084830895148274
:1007C0000895CF93DF93282F220F330BF901E454C0
:1007D000FD4FC081D1819A81F901EC53FD4F019009
:1007E000F081E02D2485921770F4911105C095E0F9
:1007F0009C8391E090937A010E94B3028A818F5F7B
:100800008A8380E001C084E0DF91CF910895E82FD2
:10081000EE0FFF0BE454FD4F0190F081E02D1182AB
:1008200010820C94920E1F93CF93DF930E94F602D6
:10083000182F892F492F092E000C550B660B770BAB
:10084000409375015093760160937701709378011E
:10085000292F220F330BF901E454FD4FC081D181C0
:10086000D0937001C0936F01F901EC53FD4F2081CB
:10087000318130936C0120936B019C81953019F488
:100880000E9407041B8310927A01DF91CF911F9180
:100890000895E0917501F0917601EE0FFF1FE45489
:1008A000FD4F0190F081E02D9091430683818917DF
:1008B00030F40E9473030E94130483E001C080E0BF
:1008C00080937901089581E0809379010C94130459
:1008D000EF92FF920F931F93CF93DF93C1E001C07C
:1008E000CC0F8A95EAF783E00E94E10301E113E06F
:1008F000D0E0F80181918F018C2319F08D2F0E9497
:10090000E103DF5FD330A9F70EE013E08BE9E82EB7
:1009100082E0F82ED1E0F80181918F018C2339F02B
:10092000F70180819181FC01D6870E94CF04F2E01B
:10093000EF0EF11C83E00131180769F7DF91CF91C9
:100940001F910F91FF90EF9008950E9493078111DE
:100950000E94B407E0916D01F0916E018081918158
:10096000892B21F0809171010E947B090C94DC0895
:100970000E94930781110E94B407E0916D01F091EC
:100980006E0180819181892B21F0809171010E94FB
:100990007B090C94C40881E0809360030895AF92B2
:1009A000BF92CF92DF92EF92FF920F931F93CF935C
:1009B000DF93FC01A081B181AD90BC90E501AC89D1
:1009C000BD89109739F0428553856485758530E07F
:1009D00020E017C0D50155969C938E935497579657
:1009E0009C938E93569715821482138212825BC059
:1009F00012968D919C9113973A2F2B2F009779F097
:100A0000DC011A96CD90DD90ED90FC901D974C1571
:100A10005D056E057F0560F7CD01A32FB22F93838F
:100A20008283B583A483009719F0EC01FD83EC83E6
:100A3000109729F01396FC93EE93129705C0D501F9
:100A40005596FC93EE935497E501AE89BF891A96AB
:100A50008D919D910D90BC91A02D088919892A89AD
:100A60003B8980179107A207B30780F40417150785
:100A70002607370728F0481759076A077B0798F4B5
:100A8000D5015796FC93EE9356970DC004171507A2
:100A90002607370740F4481759076A077B0718F4F9
:100AA000E501FF8BEE8BDF91CF911F910F91FF90AE
:100AB000EF90DF90CF90BF90AF900895CF93DF93EA
:100AC000DC01ED91FC9111970190F081E02D84897A
:100AD00095891296CD91DC911397A817B90711F457
:100AE000D58BC48B86899789A817B90711F4D78B42
:100AF000C68B209731F014968D919C9115979D830C
:100B00008C8314960D90BC91A02D109721F0139614
:100B1000DC93CE93129786899789892B21F4848957
:100B20009589978B868BDF91CF910895EF92FF92F5
:100B30000F931F93CF93DF93FC0180916003882371
:100B400009F4B5C084859585A685B7850196A11D54
:100B5000B11D84879587A687B787408151816281BF
:100B6000738184179507A607B70709F0A0C04089CD
:100B70005189628973894F5F5F4F6F4F7F4F8481C7
:100B80009581A681B78184179507A607B70718F442
:100B900040E050E0BA01408B518B628B738B14861E
:100BA000158616861786C689D789209709F47FC0CF
:100BB0008A859B85AC85BD85481759076A077B07E1
:100BC00009F075C0CE01DC011296ED90FC901397F0
:100BD000E114F10471F0D7011A960D911D912D9138
:100BE0003C911D97401751076207730711F4C70125
:100BF000EACF2C813D812115310529F0D9011396C9
:100C0000FC92EE921297E114F10429F0D7011596A7
:100C10003C932E93149724893589C217D30711F476
:100C2000F58AE48AE114F10419F0F78AE68A04C02F
:100C300024893589378B268B8F01FC011382128220
:100C4000EA80FB80E881F9810280F381E02DCE010A
:100C500009954E815F81688579854115510561054A
:100C6000710509F18A859B85AC85BD85840F951F2B
:100C7000A61FB71FF8014481558166817781481707
:100C800059076A077B0738F4841B950BA60BB70B33
:100C90000197A109B1098A879B87AC87BD87CE01DF
:100CA0000E94CF0401C01E86E701209749F6DF911C
:100CB000CF911F910F91FF90EF900895FC018281D9
:100CC0000C94E103EF92FF920F931F93CF93DF9366
:100CD0007C018B01FB01C285D385CB010A960E9462
:100CE00066070097E9F0F8012585FC01D701121687
:100CF00024F481918D932150FACF8881F801958554
:100D0000891B888399818585890F898394858917B3
:100D100008F019828A81882329F01A828CE003C0A6
:100D20008DE001C080E0DF91CF911F910F91FF9086
:100D3000EF900895DA01109749F0ED91FC91119729
:100D4000309721F0AB01BC01CD01099481E00895F9
:100D500081E00895EF92FF920F931F93CF937B0151
:100D6000DC0112960D911C91139701151105F1F0FC
:100D7000D8011496ED91FC911597B701C80109951A
:100D8000C82F81110AC0F80180819181009741F03C
:100D9000DC01ED91FC91099503C08E3009F4C0E0AF
:100DA000F80102811381CC2301F301C0C0E080E08F
:100DB0000E942A078C2FCF911F910F91FF90EF90E7
:100DC0000895CF92DF92EF92FF920F931F93CF93EC
:100DD000DF93EC016B010A851B85E888F98848855B
:100DE0005985C7010E949A06882351F1CE010A96BF
:100DF0000E9430070097F1F02D85022E000C330B76
:100E0000F601A7017C01C601121613066CF4DC0181
:100E10006D91CD01DA016D93AD016191D7016D93B3
:100E20007D0121503109F0CFF80190818D85890F26
:100E3000808304C081E0D80112968C9380E001C0C9
:100E40008EE0DF91CF911F910F91FF90EF90DF9097
:100E5000CF90089580917A0181110C9449040895EE
:100E6000CF92DF92EF92FF92FC01A081B1818C9131
:100E700090E011962C91AC01420F511D9A016A012C
:100E8000550FEE08FF084281A42FB0E0BD01681B9A
:100E9000790B8381082E000C990B681779077CF079
:100EA0008481958150E060E070E0C416D506E606C6
:100EB000F70610F02A1B3B0B820F931F02C080E045
:100EC00090E0FF90EF90DF90CF900895DC01ED91DE
:100ED000FC9111972081222341F0218114968D915C
:100EE0009C911597820F911D089580E090E00895E0
:100EF0000E949307809168010895809368010E9481
:100F000068040E94CB040C9463040C94910ECF935C
:100F1000C82F0E941603811102C00E94CE0E8C2F92
:100F2000CF910C94910080916D038130D9F0809124
:100F3000650390916603A0916703B0916803892BC4
:100F40008A2B8B2B79F481E04091690350916A03DD
:100F500060916B0370916C03452B462B472B19F462
:100F600080E0089581E0089510926D031092690366
:100F700010926A0310926B0310926C031092650337
:100F800010926603109267031092680380916103C8
:100F900090916203A0916303B091640380936E0308
:100FA00090936F03A0937003B093710308950E9410
:100FB000D10E80916E0390916F03A0917003B09158
:100FC00071030196A11DB11D80936E0390936F0371
:100FD000A0937003B09371038091690390916A03A9
:100FE000A0916B03B0916C030196A11DB11D80937C
:100FF000690390936A03A0936B03B0936C03089505
:101000008091690390916A03A0916B03B0916C0386
:101010000097A105B10569F140916E0350916F03EE
:101020006091700370917103415051096109710918
:1010300040936E0350936F0360937003709371033A
:101040000197A109B1098093690390936A03A09362
:101050006B03B0936C0380916E0390916F03A0912A
:101060007003B0917103892B8A2B8B2B11F40C9494
:10107000CF0E08958091690390916A03A0916B034C
:10108000B0916C03892B8A2B8B2B89F4809165039B
:1010900090916603A0916703B0916803892B8A2B16
:1010A0008B2B29F40E94D10E81E080936D0308956B
:1010B00080916D03882321F010926D030C94CF0E64
:1010C00008950E94D50E80916E0390916F03A091B8
:1010D0007003B09171030196A11DB11D80936E0341
:1010E00090936F03A0937003B09371038091650395
:1010F00090916603A0916703B09168030196A11DCA
:10110000B11D8093650390936603A0936703B0932A
:10111000680308958091650390916603A091670329
:10112000B09168030097A105B10569F140916E0384
:1011300050916F0360917003709171034150510998
:101140006109710940936E0350936F0360937003BC
:10115000709371030197A109B1098093650390937E
:101160006603A0936703B093680380916E03909128
:101170006F03A0917003B0917103892B8A2B8B2B85
:1011800011F40C94D30E08950E949307882311F054
:1011900083E1089580E00895CF93C82F0E949307BC
:1011A0008C2F0E94E103C82F80917A0181110E9447
:1011B00049048C2FCF910895CF930E9493078823E1
:1011C00011F0C3E101C0C0E0E0916D01F0916E014A
:1011D0008281815082830E94D10381E080937901D2
:1011E0000E9413048C2FCF910895CF93C82F0E9493
:1011F0009307E0916D01F0916E01828181508283AD
:101200008C2F0E94E103C82F811108C00E94D103D6
:1012100081E0809379010E94130407C0E0916D0181
:10122000F0916E0182818F5F82838C2FCF91089520
:10123000CF930E949307882311F0C3E101C0C0E05F
:10124000809171010E9459030E94490480917101AB
:1012500090917201A0917301B09174014091750158
:10126000509176016091770170917801841795070C
:10127000A607B70711F40E942E038C2FCF91089573
:10128000CF93DF93EC010E949307882311F083E151
:1012900001C080E040917101509172016091730131
:1012A00070917401433051056105710514F4488350
:1012B00003C09091DD019883DF91CF9108950F9342
:1012C0001F93CF93C82F8B010E949307882311F09F
:1012D00083E101C080E0EC2FEE0FFF0BE454FD4FE3
:1012E0000190F081E02D94819370F8019083CF916B
:1012F0001F910F910895880F990BFC01E454FD4F45
:10130000A081B181ED91FC911197309769F01D9208
:101310001C922091DD0193818481228314821382A7
:10132000E92FF82F3097B9F70895CF93C82F0E946F
:101330009307882311F083E101C080E0EC2FF0E0F7
:10134000EE0FFF1FEC5FFC4FA081B1819091710106
:1013500012969C931297E0916D01F0916E0120819D
:10136000318114963C932E931397B183A08393817C
:1013700011969C9311972C9193819695921760F4F6
:1013800030E0D901A058BC4F9C9191509C93220F02
:10139000331F9170292B2383CF910895CF93DF932F
:1013A000C82F0E949307882311F0D3E101C0D0E039
:1013B000EC2FF0E0EE0FFF1FEC5FFC4F0190F0818F
:1013C000E02DA0916D01B0916E01818113968C93F7
:1013D0001397838194818D939C93148213828091BF
:1013E000DD0182830E9449048D2FDF91CF91089502
:1013F000DC01ED91FC9184819581DC01ED91FC9102
:1014000009941F93CF93DF93182FEB010E9493074A
:10141000882311F083E101C080E0E12FF0E0EE0FBE
:10142000FF1FE556FD4F0190F081E02D0190F08106
:10143000E02D0190F081E02D408151816281738126
:101440004C835D836E837F83448155816681778180
:10145000488359836A837B83408551856285738580
:10146000488759876A877B87DF91CF911F910895BD
:101470008F929F92AF92BF92CF92DF92EF92FF92A4
:101480000F931F93CF93C82F8B010E94930788233C
:1014900011F083E101C080E0EC2FF0E0EE0FFF1FC0
:1014A000E556FD4F0190F081E02D9685913029F5AC
:1014B00042855385648575850190F081E02D01900A
:1014C000F081E02DC088D188E288F3884C155D0555
:1014D0006E057F0540F484809580A680B780480D16
:1014E000591D6A1D7B1D4C195D096E097F09F801A4
:1014F000408351836283738301C085E0CF911F9144
:101500000F91FF90EF90DF90CF90BF90AF909F90A2
:101510008F9008958F929F92AF92BF92CF92DF9259
:10152000EF92FF920F931F93CF93DF93D82F4A012F
:101530005B01680179010E949307882311F0C3E1E0
:1015400001C0C0E0ED2FF0E0EE0FFF1FE556FD4FAC
:101550000190F081E02D8685811130C0A081B1819C
:101560000D90BC91A02D50964D915D916D917C9107
:101570005397480D591D6A1D7B1D14968D919D91A1
:101580000D90BC91A02D84179507A607B70740F4CE
:10159000481B590B6A0B7B0B4150510961097109BA
:1015A0004287538764877587C682D782E086F18633
:1015B00081E08687CF010E94CF0401C0C7E08C2F55
:1015C000DF91CF911F910F91FF90EF90DF90CF901F
:1015D000BF90AF909F908F9008958F929F92AF92FF
:1015E000BF92CF92DF92EF92FF920F931F93CF9310
:1015F000DF93C82F4A015B01680179010E949307BC
:10160000882311F0D3E101C0D0E0EC2FF0E0EE0F21
:10161000FF1FE556FD4F0190F081E02D8685811179
:101620000EC082869386A486B586C682D782E0865F
:10163000F18681E08687CF010E94CF0401C0D7E008
:101640008D2FDF91CF911F910F91FF90EF90DF9041
:10165000CF90BF90AF909F908F9008950F931F935E
:10166000CF93DF93C82F0E949307882311F0D3E113
:1016700001C0D0E0EC2FF0E0EE0FFF1FE556FD4F6C
:1016800000811181F8018685813031F4C8010E9402
:101690005E05F801168601C0D5E08D2FDF91CF9150
:1016A0001F910F910895CF93DF93880F991FFC012D
:1016B000ED58FD4F0190F081E02D8585882369F07C
:1016C000C285D385CF010A960E946607892B39F01F
:1016D0008A81882331F08CE005C08AE003C08DE068
:1016E00001C080E0DF91CF910895880F991FFC0120
:1016F000E959FD4F80819181DC01ED91FC910994C4
:101700009B01880F991FFC01ED58FD4F608171818D
:10171000DB011696ED91FC911797C9010994880F8A
:10172000991FFC01E959FD4F80819181DC01ED9108
:10173000FC9160E070E0099580E0089526E040E0CB
:1017400052EC61E070E08AE993E00E946E1161E082
:101750008DE00E944A0D62E08CE00E944A0D81E01B
:101760000C94700E6EE773E080910A0390910B0366
:101770000E94F100882349F08D30B9F16FEE71E0DD
:101780008AE993E00E947A0F30C06EED71E08AE939
:1017900093E00E947A0F60917E0370917F034AE08C
:1017A00050E08AE993E00E9414106FE372E08AE946
:1017B00093E00E947A0F80917E0390917F038130A5
:1017C000910549F0029789F410927D0310927C03F1
:1017D00081E090E006C010927D0310927C0384E0CB
:1017E00090E090937B0380937A0380917E039091A5
:1017F0007F03009751F1039731F180917C03909121
:101800007D03019690937D0380937C0320917A035E
:1018100030917B038217930781F410927D0310921D
:101820007C03209178033091790381E090E0821B62
:10183000930B909379038093780380917803909130
:101840007903892B11F061E001C060E08DE00E9416
:10185000860D0C94B9008F929F92AF92BF92CF9257
:10186000DF92EF92FF920F931F93CF93DF9300D0FD
:1018700000D0CDB7DEB7C0900C03D0900D0301E0CF
:1018800010E082E0E82EF12C93E0A92EB12CBE01ED
:101890006D5F7F4FC6010E94F100882349F08C30B4
:1018A00009F04EC06DEF71E08AE993E00E947A0F73
:1018B0008B819C814C0123E0922293FF1EC01093E8
:1018C000770300937603909275038092740363E12B
:1018D00072E08AE993E00E947A0F6091740370913C
:1018E00075034AE050E08AE993E00E9414106FE328
:1018F00072E08AE993E00E947A0F809176039091DA
:101900007703892B19F4BA82A982C1CF809174031D
:1019100090917503881999099C012D593F4F273CD7
:10192000310518F41A821982B2CF89539F4F8F382C
:10193000914018F41A830983AACFFA82E982A7CFCB
:101940008D30E1F4BE016F5F7F4F8091060390916F
:1019500007030E94ED008823B9F065E272E08AE98E
:1019600093E00E947A0F69817A814AE050E08AE927
:1019700093E00E9414106EE372E002C061E472E032
:101980008AE993E00E947A0F0E94B9000F900F90AD
:101990000F900F90DF91CF911F910F91FF90EF90DB
:1019A000DF90CF90BF90AF909F908F9008950F934E
:1019B0001F93CF93DF9300D0CDB7DEB78CE00E94AA
:1019C000B50D8C018EE00E94730E012B59F420910D
:1019D0007203309173032F5F3F4F30937303209353
:1019E000720304C010927303109272039A83898366
:1019F00020917203309173032A3031051CF09860F6
:101A00009A838983BE016F5F7F4F80910803909115
:101A100009030E94ED00882331F064E572E08AE951
:101A200093E00E947A0F0E94B9000F900F90DF910F
:101A3000CF911F910F9108958BEB91E00C943A0197
:101A40000895833081F028F4813099F08230A1F03C
:101A500008958730A9F08830B9F08430D1F48091AE
:101A600080008F7D03C0809180008F7780938000FD
:101A7000089584B58F7702C084B58F7D84BD0895A5
:101A80008091B0008F7703C08091B0008F7D8093EC
:101A9000B0000895CF93DF9390E0FC01E458FF4F2E
:101AA0002491FC01E057FF4F8491882361F190E07D
:101AB000880F991FFC01E854FF4FC591D491FC0198
:101AC000E255FF4FA591B491611109C09FB7F894F9
:101AD0008881209582238883EC912E230BC062306D
:101AE00061F49FB7F8948881322F309583238883DF
:101AF000EC912E2B2C939FBF06C08FB7F894E881F2
:101B00002E2B28838FBFDF91CF9108951F93CF9302
:101B1000DF93282F30E0F901E859FF4F8491F90154
:101B2000E458FF4FD491F901E057FF4FC491CC2303
:101B3000C1F0162F81110E94210DEC2FF0E0EE0F65
:101B4000FF1FE255FF4FA591B4919FB7F894111173
:101B500004C08C91D095D82302C0EC91DE2BDC938D
:101B60009FBFDF91CF911F910895CF93DF93282FCF
:101B700030E0F901E859FF4F8491F901E458FF4F33
:101B8000D491F901E057FF4FC491CC2391F081111A
:101B90000E94210DEC2FF0E0EE0FFF1FEC55FF4FE0
:101BA000A591B491EC91ED2381E090E021F480E0E7
:101BB00002C080E090E0DF91CF9108951F920F92D4
:101BC0000FB60F9211242F933F934F935F936F9310
:101BD0007F938F939F93AF93BF93EF93FF938091E6
:101BE000910390919203A0919303B091940330914B
:101BF000900323E0230F2D3720F40196A11DB11D82
:101C000005C026E8230F0296A11DB11D2093900365
:101C10008093910390939203A0939303B0939403C2
:101C20008091950390919603A0919703B0919803AA
:101C30000196A11DB11D8093950390939603A093E7
:101C40009703B09398030E941C0DFF91EF91BF91F1
:101C5000AF919F918F917F916F915F914F913F9144
:101C60002F910F900FBE0F901F90189584B5826032
:101C700084BD84B5816084BD85B5826085BD85B530
:101C8000816085BDEEE6F0E0808181608083E1E8DF
:101C9000F0E0108280818260808380818160808317
:101CA000E0E8F0E0808181608083E1EBF0E080811A
:101CB00084608083E0EBF0E0808181608083EAE7EC
:101CC000F0E0808184608083808182608083808175
:101CD000816080838081806880831092C100089534
:101CE0008093D80108958E3008F08E502091D8014D
:101CF00090E4299F900111248770822B80937C00AF
:101D000080917A00806480937A0080917A0086FDC9
:101D1000FCCF809178002091790090E0922B08957B
:101D2000FFCFFFCFCF93DF93880F990BFC01EC53CC
:101D3000FD4FC081D181AC81BD8111978A819B818A
:101D4000A80FB91F2D85CD010197FD0132972230D3
:101D500019F421EB30E002C02DEC30E02C93DC01D3
:101D60003C939E818F819083DF018E93CF010797F3
:101D70001E928A179B07E1F780E8DF0118978C9382
:101D8000CF0144971E928A179B07E1F7A881B9817A
:101D90007597ED93FC93DF91CF9108950895789412
:101DA0000895F894089578940895F89408950895FE
:101DB0000E94360E0E94D70E0E94200D0E949E0B9C
:101DC000809199030E94870780E090E008958091B8
:101DD000140380939903089508951F920F920FB6EC
:101DE0000F9211242F933F934F935F936F937F93A1
:101DF0008F939F93AF93BF93EF93FF93E091D9019C
:101E0000F091DA010995FF91EF91BF91AF919F9108
:101E10008F917F916F915F914F913F912F910F9093
:101E20000FBE0F901F9018951F920F920FB60F9232
:101E300011242F933F934F935F936F937F938F93CF
:101E40009F93AF93BF93EF93FF93E091DB01F091EA
:101E5000DC010995FF91EF91BF91AF919F918F9117
:101E60007F916F915F914F913F912F910F900FBE96
:101E70000F901F901895CF92DF92EF92FF920F93E1
:101E80001F93CF93DF936C017A018B01C0E0D0E008
:101E9000CE15DF0581F0D8016D918D01D601ED9150
:101EA000FC910190F081E02DC6010995892B11F07C
:101EB0002196EECF7E01C701DF91CF911F910F9147
:101EC000FF90EF90DF90CF9008956115710579F044
:101ED000FB0101900020E9F73197AF01461B570B3A
:101EE000DC01ED91FC910280F381E02D099480E00A
:101EF00090E008950C94650FDC01ED91FC91019048
:101F0000F081E02D09948F929F92AF92BF92EF9251
:101F1000FF920F931F93CF93DF93CDB7DEB7A197B7
:101F20000FB6F894DEBF0FBECDBF7C01FA01CB0126
:101F300019A2223008F42AE08E010F5D1F4F822E75
:101F4000912CA12CB12CBF01A50194010E94D611A6
:101F5000F901CA01015011096A3014F4605D01C031
:101F6000695CD8016C93232B242B252B61F7B801D6
:101F7000C7010E94650FA1960FB6F894DEBF0FBE91
:101F8000CDBFDF91CF911F910F91FF90EF90BF9048
:101F9000AF909F908F900895CF92DF92EF92FF9233
:101FA0000F931F93CF93DF932115310581F4DC014B
:101FB000ED91FC910190F081E02D642FDF91CF91A4
:101FC0001F910F91FF90EF90DF90CF9009942A30EE
:101FD000310501F577FF1DC06A017B01EC016DE25F
:101FE0000E947C0F8C0144275527BA014C195D09CA
:101FF0006E097F092AE0CE010E94830F800F911F96
:10200000DF91CF911F910F91FF90EF90DF90CF90D4
:1020100008952AE0DF91CF911F910F91FF90EF90EB
:10202000DF90CF900C94830F9A01AB01770F660B72
:10203000770B0C94CC0F1F920F920FB60F921124B6
:102040002F938F939F93EF93FF93E091AA03F091C7
:10205000AB038081E091B003F091B10382FD12C027
:1020600090818091B3038F5F8F732091B4038217A7
:1020700051F0E091B303F0E0E656FC4F958F80936A
:10208000B30301C08081FF91EF919F918F912F91B8
:102090000F900FBE0F901F9018951F920F920FB6C2
:1020A0000F9211242F933F934F935F936F937F93DE
:1020B0008F939F93AF93BF93EF93FF938AE993E03E
:1020C0000E94DD10FF91EF91BF91AF919F918F9191
:1020D0007F916F915F914F913F912F910F900FBE24
:1020E0000F901F901895EAE9F3E01382128288EEB0
:1020F00093E0A0E0B0E084839583A683B78381E575
:1021000093E09183808385EC90E09587848784ECCD
:1021100090E09787868780EC90E0918B808B81ECB4
:1021200090E0938B828B82EC90E0958B848B86EC95
:1021300090E0978B868B118E128E138E148E0895DD
:10214000FC01918D228D892F90E0805C9F4F821B36
:1021500091098F7399270895FC01918D828D9817AD
:1021600031F0828DE80FF11D858D90E008958FEF9D
:102170009FEF0895FC01918D828D981761F0828DFB
:10218000DF01A80FB11D5D968C91928D9F5F9F73AB
:10219000928F90E008958FEF9FEF0895FC01538D8B
:1021A000448D252F30E0842F90E0821B930B541731
:1021B00010F0CF96089501970895FC01848DDF01FA
:1021C000A80FB11DA35ABF4F2C91848D90E00196AA
:1021D0008F739927848FA689B7892C93A089B18999
:1021E0008C91837080648C93938D848D981306C03A
:1021F0000288F389E02D80818F7D80830895EF929E
:10220000FF920F931F93CF93DF93EC0181E0888FB0
:102210009B8D8C8D981305C0E889F989808185FD97
:1022200026C0F62E0B8D10E00F5F1F4F0F73112786
:10223000E02E8C8DE8120CC00FB607FCFACFE889AF
:10224000F989808185FFF5CFCE010E94DD10F1CFA5
:102250008B8DFE01E80FF11DE35AFF4FF0829FB70F
:10226000F8940B8FEA89FB89808180620AC09FB74E
:10227000F894EE89FF896083E889F9898081837009
:10228000806480839FBF81E090E0DF91CF911F91B8
:102290000F91FF90EF900895CF93DF93EC01888D1D
:1022A0008823C9F0EA89FB89808185FD05C0A8895A
:1022B000B9898C9186FD0FC00FB607FCF5CF8081E0
:1022C00085FFF2CFA889B9898C9185FFEDCFCE012A
:1022D0000E94DD10E7CFDF91CF910895CF92DF927A
:1022E000EF92FF921F93CF93DF93EC016A017B0182
:1022F000122FE889F98982E080834115514E6105EA
:102300007105B1F060E079E08DE390E0A7019601FE
:102310000E94D611DA01C9010197A109B109B69548
:10232000A795979587959C01211580E13807A8F01E
:10233000E889F989108260E874E88EE190E0A701ED
:1023400096010E94D611DA01C9010197A109B109CC
:10235000B695A795979587959C01EC85FD8530836B
:10236000EE85FF852083188EEC89FD891083EA892C
:10237000FB89808180618083EA89FB898081886014
:102380008083EA89FB89808180688083EA89FB8970
:1023900080818F7D8083DF91CF911F91FF90EF909F
:1023A000DF90CF900895F8940C94FE11A1E21A2EBC
:1023B000AA1BBB1BFD010DC0AA1FBB1FEE1FFF1FE9
:1023C000A217B307E407F50720F0A21BB30BE40B39
:1023D000F50B661F771F881F991F1A9469F7609580
:1023E0007095809590959B01AC01BD01CF0108953A
:1023F000EE0FFF1F0590F491E02D0994F894FFCFA4
:1024000000000000000000000000000000000000CC
:1024100000000000000000000000000000000000BC
:1024200000000000000000000000000000000000AC
:10243000000000000000000000000000000000009C
:10244000000000000000000000000000000000008C
:10245000000000000000000000000000000000007C
:102460000000000000000000FF0000F60200008BEA
:1024700003FFFFFFFFFFFFFFFF0000A806A806A164
:1024800002000000007D0000007D00000002AA02A2
:1024900000000000F4010000F401000002B302009B
:1024A000000000640000006400000002000000035F
:1024B000040000000204000000010401000000FF0D
:1024C000FF0000010000000000000000000000000C
:1024D0000000000400FF000001EC0EEC0EFF563A75
:1024E000204E6577204C4544206D6F646520005672
:1024F0003A20434F4D206572726F720A004D3A20A8
:10250000434F4D2072656376206F766572666C6FFF
:10251000770A004D3A204E657720726566657265D0
:102520006E636520004D3A20434F4D2073656E6405
:10253000206572726F7220286D6F64652000290A11
:10254000004D3A20434F4D207265637620657272CC
:102550006F720A00433A20434F4D2073656E64202A
:102560006572726F720A006F026B02AA067702AA86
:102570000689028902770200000000E10662067BFC
:1025800001850302023704390600000000E10662FB
:10259000067D0188030C024B063B069D018E017FE0
:1025A00001BB01F809A7025E0601BB01F809B002F0
:1025B0005E0600BB01F809B9025E0602B601B10170
:1025C000AC018B03E802DA02CC02F6023D063905C3
:1025D0000001D70C0000020301005906AB06000100
:1025E000B20B0000010201003F06390400012B0C70
:1025F00000000001010057065B065000900E00002D
:1026000003000100D30101000000010000000101EE
:1026100001010101008A08580861083A08B804D786
:1026200007A50400081809CE098507010ACC083857
:102630000AF5088A0A4009ED0A7D072E0B7807750E
:102640000B530B800B95098F0B5F09DC0800000012
:1026500000FF103B0FCE104C11A010BA10AC1000B0
:00000001FF
