:100000000C9454000C94950C0C94BC0C0C947C0037
:100010000C947C000C947C000C947C000C947C0070
:100020000C947C000C947C000C947C000C947C0060
:100030000C947C000C947C000C947C000C947C0050
:100040000C947F0B0C947C000C94F80D0C94250EF2
:100050000C947C000C947C000C947C000C947C0030
:100060000C947C000C947C00010204081020408059
:1000700001020408102001020408102004040404F2
:100080000404040402020202020203030303030342
:1000900000000000250028002B00000000002400C4
:1000A00027002A008F0C4B0E11241FBECFEFD8E083
:1000B000DEBFCDBF12E0A0E0B1E0E4EFFFE102C09F
:1000C00005900D92AC39B107D9F725E0ACE9B2E063
:1000D00001C01D92A43EB207E1F710E0C4E5D0E0F4
:1000E00004C02197FE010E94F20FC235D107C9F763
:1000F0000E94800C0C94A50F0C940000E2E10E9479
:1001000023010895E9E00E9423010895EAE00E9496
:1001100023010895E1E00E9423010895E3E00E9495
:1001200023010895E7E00E9423010895E5E00E947D
:1001300023010895E0E00E9423010895E2E00E9477
:1001400023010895E4E00E9423010895ECE00E9459
:1001500023010895E8E00E9423010895EEE00E9443
:1001600023010895E4E10E9423010895E0E10E9443
:1001700023010895E7E10E9423010895E6E00E942B
:1001800023010895EBE00E9423010895EDE00E9411
:1001900023010895EFE00E9423010895E1E10E9408
:1001A00023010895E3E10E9423010895E5E10E94FF
:1001B00023010895E6E10E942301089521968A9281
:1001C0009A92AA92BA92CA92DA92EA92FA920A930E
:1001D0001A932197E0916901F0916A010080F18101
:1001E000E02DC083D1830895C0916B01D0916C0143
:1001F000E881F981C081D181219619910991F99005
:10020000E990D990C990B990A99099908990219737
:1002100008952F903F90E7E6F1E0CDB7DEB7EDBF50
:10022000FEBF3F922F9208952F903F90CDBFDEBF2B
:100230003F922F920895E0E80E9423010895E0E4A0
:100240000E94230108952F923F924F925F926F92E6
:100250007F922FB62F92CF93DF937E2EF894E0916A
:100260000001EF5FE0930001E13011F40E94090109
:10027000E0E0E0937901E72DE07849F00E94520533
:10028000F0917A01F17071F00E940F040BC0E72D1C
:10029000EC3140F4EE0FF0E0E95AFD4F0190F081AF
:1002A000E02D0995F0917901EF2FE17059F0F2708E
:1002B00011F00E94DE008F938F2F0E9459038F91BF
:1002C0000E94F4002091000121502093000122237C
:1002D00011F40E941401DF91CF912F902FBE7F90D7
:1002E0006F905F904F903F902F900895FC01408158
:1002F000FB013081842F8F7090E0B0E0A0E0B695D4
:10030000A795979587958D529C4FFC018081242F4E
:10031000281B21704E70242B832F8F7090E0B0E04B
:10032000A0E0B695A795979587958D529C4FFC01B7
:100330008081932F981B91703E70932B41E050E089
:10034000291710F050E040E0CA010895AF92BF9223
:10035000CF92DF92EF92FF920F931F93CF93DF9391
:100360008C01CA01DB016A017B01F694E794D79402
:10037000C79482309105A105B10580F0880F991FBF
:10038000E801C80FD91F5601AA0CBB1CA00EB11E54
:10039000BE01C5010E947601892B59F4DF91CF91EE
:1003A0001F910F91FF90EF90DF90CF90BF90AF9093
:1003B000089598818981F5012081318139832883CD
:1003C00090838183D701C601D0CF4F925F926F9205
:1003D0007F928F929F92AF92BF92CF92DF92EF92D5
:1003E000FF92CF93DF9300D000D000D0CDB7DEB71F
:1003F0008D839E836A017B01AD81BE818C91282F04
:1004000030E050E040E029833A834B835C8346012F
:100410005701880C991CAA1CBB1C29813A814B816D
:100420005C81281539054A055B05A8F426960FB6A8
:10043000F894DEBF0FBECDBFDF91CF91FF90EF905C
:10044000DF90CF90BF90AF909F908F907F906F90F4
:100450005F904F900895240135013FEF431A530AEE
:10046000630A730A89819A81AB81BC8184159505E1
:10047000A605B70590F0B201660F771FAD81BE816A
:100480006A0F7B1FC401880F991F8A0F9B1F0E9450
:100490007601892B11F0530142013401660C771C5F
:1004A000ED81FE816E0E7F1ECC0CDD1CCE0EDF1E9C
:1004B000B301C6010E947601892B09F4B7CFD6019A
:1004C0009C9111968C911197F301208131812D938C
:1004D0003C93908381837501640199CFE6E0F5E058
:1004E00040814F5F408350E070E060E0E82FEE0F06
:1004F000FF0BE35EFD4F0190F081E02D238530E09E
:10050000F901ED52FC4F908191509083FA01EE0F6A
:10051000FF1FEA5FFA4F220F331F9170922B9083D7
:10052000818386E095E00C94A601E6E0F5E0408149
:100530004F5F408350E070E060E0FA01EE0FFF1F74
:10054000EA5FFA4FA82FAA0FBB0BA95EBD4F0D9013
:10055000BC91A02D13969C919083818386E095E0B9
:100560000C94A601CF93DF93E6E0F5E080819FEF46
:10057000980F9083D281C38190E0880F991F8A5F82
:100580009A4FDC018D919C919383828341E050E0EE
:1005900060E070E0CF010E94E5018D2F9C2FDF917C
:1005A000CF91089580919C02811115C040917101F5
:1005B0005091720160917301709174014F3F9FEFF0
:1005C00059076907790751F04230510561057105F6
:1005D00024F481E0089584E0089582E00895CF93A3
:1005E000DF93880F990BFC01E35EFD4F0190F081D2
:1005F000E02D0084F185E02D3097E1F0228121117A
:1006000019C021E02283895E9D4FEC01A881B98148
:1006100013968C9113978183208130E0F901ED527C
:10062000FC4F808181508083220F331F8170822B89
:1006300013968C93DF91CF910895CF93DF93880F1A
:10064000990BFC01E35EFD4F0190F081E02D0084E9
:10065000F185E02D309761F02281213049F412823A
:10066000895E9D4FEC01A881B981818113968C939D
:10067000DF91CF9108958091750190917601A091BD
:100680007701B091780140917101509172016091B0
:10069000730170917401481759076A077B0741F08D
:1006A000E0916F01F091700121E024830C94950298
:1006B0000895CF93DF93D0E0C0E0882389F0C09104
:1006C0006901D0916A01E0916D01F0916E01848120
:1006D000833031F081E08483809171010E94950222
:1006E000E0916F01F0917001F0936E01E0936D0164
:1006F00080916B0190916C0190936A0180936901E4
:100700008091750130917601209177019091780167
:10071000809371013093720120937301909374015F
:1007200092E094830E94EF02CE01DF91CF91089571
:10073000809171010E941D03E0916D01F0916E01A5
:100740008281882319F085E08483089514820895B6
:10075000CF93DF93282F220F330BF901E95EFD4F72
:10076000C081D1819A81235E3D4FD901ED91FC91E9
:100770002485921780F4911105C095E09C8391E047
:1007800090937A010E946E028A818F5F8A8380E053
:10079000DF91CF91089584E0FBCFE82FEE0FFF0BA0
:1007A000E95EFD4F0190F081E02D118210820C94E2
:1007B0002E0C1F93CF93DF930E94B202182F892F24
:1007C000492F092E000C550B660B770B40937501D2
:1007D000509376016093770170937801292F220F4F
:1007E000330BF901E95EFD4FC081D181D0937001D7
:1007F000C0936F01235E3D4FF90120813181309319
:100800006C0120936B019C81953019F40E94CD03FB
:100810001B8310927A01DF91CF911F910895E0918F
:100820007501F0917601EE0FFF1FE95EFD4F01901B
:10083000F081E02D909108058381891740F40E9492
:100840003B030E94D90383E080937901089580E0FF
:10085000FBCF81E0809379010C94D903CF93DF9390
:10086000C1E0D0E001C0CC0F8A95EAF782E00E9497
:10087000A803809154028C2319F080E00E94A80301
:10088000809155028C2319F081E00E94A803809189
:1008900052028C2349F0809101029091020221E0E2
:1008A000FC0126870E94900480915302C82359F0CE
:1008B000809103029091040221E0FC012687DF91E0
:1008C000CF910C949004DF91CF9108950E9433064C
:1008D00081110E945306E0916D01F0916E018081BB
:1008E0009181892B21F0809171010E940D080C9457
:1008F00078070E94330681110E945306E0916D0132
:10090000F0916E0180819181892B21F0809171019C
:100910000E940D080C94630781E080939D02089566
:10092000CF92DF92EF92FF920F931F93CF93DF93BB
:10093000FC01A081B1810D90BC91A02D54968D91A8
:100940009C915597009709F445C04285538564856D
:10095000758530E020E0EC01CA84DB84EC84FD8402
:100960004C155D056E057F0508F049C08C011383A9
:100970000283358324830115110519F0E801FD83F5
:10098000EC832115310509F444C0E901FB83EA83B6
:100990005696CD91DC9157970A851B852C853D8510
:1009A0005096CD90DD90ED90FC9053970C151D0561
:1009B0002E053F0598F5C416D506E606F70628F07D
:1009C000401751076207730788F45796FC93EE931C
:1009D00056970CC05596FC93EE9354975796FC93FC
:1009E000EE9356971582148213821282DF91CF9173
:1009F0001F910F91FF90EF90DF90CF900895EC0141
:100A00000A811B819C010115110509F4B0CFC801B1
:100A1000A2CF5596FC93EE935497BACFC416D50641
:100A2000E606F70618F7CCCFCF93DF93FC01A08141
:100A3000B1810D90BC91A02DC281D38154968D912E
:100A40009C9155978E179F0721F45596DC93CE9372
:100A5000549756968D919C9157978E179F0721F426
:100A60005796DC93CE935697209721F084819581F9
:100A70009D838C830480F581E02D309711F0D38322
:100A8000C28356968D919C915797892B41F4549629
:100A90008D919C91559757969C938E935697DF9185
:100AA000CF910895EF92FF920F931F93CF93DF930F
:100AB000EC0180919D02882309F4A8C08C859D8556
:100AC000AE85BF850196A11DB11D8C879D87AE8720
:100AD000BF87488159816A817B8184179507A60762
:100AE000B70709F093C088899989AA89BB890196BB
:100AF000A11DB11D4C815D816E817F814817590711
:100B00006A077B0718F480E090E0DC01888B998B02
:100B1000AA8BBB8B1C861D861E861F860E891F898D
:100B20000115110509F472C0F801428553856485E9
:100B30007585481759076A077B0709F067C09F0149
:100B40000280F381E02D309749F04285538564851A
:100B5000758584179507A607B70789F3D8011496FA
:100B60008D919C91009729F0DC011396FC93EE93F4
:100B70001297309711F0958384838C899D8908178B
:100B8000190711F4FD8BEC8B309709F446C0FF8BED
:100B9000EE8BF901138212827801D80112960D9121
:100BA0001C911397ED91FC910280F381E02DC70118
:100BB0000995F70186819781A085B1850097A105E8
:100BC000B10581F14285538564857585840F951F34
:100BD000A61FB71F4C815D816E817F814817590721
:100BE0006A077B0740F44095509560957095840F97
:100BF000951FA61FB71FF70182879387A487B58724
:100C0000C7010E9490040115110531F6DF91CF91C3
:100C10001F910F91FF90EF9008958C899D899F8B74
:100C20008E8BB7CF1686EFCFFC0182810C94A80380
:100C30000E943306809168010895809368010E94A4
:100C40002E040E948C040C9429040C942D0CCF9338
:100C5000C82F0E94D202811102C00E94760C8C2FF4
:100C6000CF910C9482002091AA022130D1F04091C2
:100C7000A2025091A3026091A4027091A5028091FA
:100C8000A6029091A702A091A802B091A902842B7C
:100C9000952BA62BB72B21E0892B8A2B8B2B09F4C4
:100CA00020E0822F08951092AA021092A6021092BC
:100CB000A7021092A8021092A9021092A20210920A
:100CC000A3021092A4021092A50280919E0290911C
:100CD0009F02A091A002B091A1028093AB029093D9
:100CE000AC02A093AD02B093AE0208950E94790CBD
:100CF0008091AB029091AC02A091AD02B091AE0296
:100D00000196A11DB11D8093AB029093AC02A093FC
:100D1000AD02B093AE028091A6029091A702A0917D
:100D2000A802B091A9020196A11DB11D8093A6024F
:100D30009093A702A093A802B093A902089580916E
:100D4000A6029091A702A091A802B091A9020097D3
:100D5000A105B10569F14091AB025091AC026091DF
:100D6000AD027091AE024150510961097109409381
:100D7000AB025093AC026093AD027093AE02019748
:100D8000A109B1098093A6029093A702A093A8029B
:100D9000B093A9028091AB029091AC02A091AD02F8
:100DA000B091AE02892B8A2B8B2B11F40C94770C0B
:100DB00008958091A6029091A702A091A802B091F7
:100DC000A9024091A2025091A3026091A4027091E5
:100DD000A502842B952BA62BB72B892B8A2B8B2B2B
:100DE00029F40E94790C81E08093AA0208958091F1
:100DF000AA02882321F01092AA020C94770C08957D
:100E00000E947D0C8091AB029091AC02A091AD024A
:100E1000B091AE020196A11DB11D8093AB029093DB
:100E2000AC02A093AD02B093AE028091A202909169
:100E3000A302A091A402B091A5020196A11DB11D2B
:100E40008093A2029093A302A093A402B093A50260
:100E500008958091A2029091A302A091A402B09162
:100E6000A5020097A105B10569F14091AB0250912F
:100E7000AC026091AD027091AE024150510961091E
:100E800071094093AB025093AC026093AD02709332
:100E9000AE020197A109B1098093A2029093A30227
:100EA000A093A402B093A5028091AB029091AC02F2
:100EB000A091AD02B091AE02892B8A2B8B2B11F43D
:100EC0000C947B0C08950E943306811183E10895F0
:100ED000CF93C82F0E9433068C2F0E94A803C82FDF
:100EE00080917A0181110E940F048C2FCF91089577
:100EF000CF930E943306C82F8111C3E1E0916D01A9
:100F0000F0916E018281815082830E94980381E07A
:100F1000809379010E94D9038C2FCF910895CF93AC
:100F2000C82F0E943306E0916D01F0916E0182811D
:100F3000815082838C2F0E94A803C82F81110AC080
:100F40000E94980381E0809379010E94D9038C2F3D
:100F5000CF910895E0916D01F0916E0182818F5FD4
:100F60008283F5CFCF930E943306C82F8111C3E14E
:100F7000809171010E941D030E940F0480917101F4
:100F800090917201A0917301B0917401409175012B
:100F900050917601609177017091780184179507DF
:100FA000A607B70711F40E94EF028C2FCF91089586
:100FB000CF93DF93EC010E943306811183E14091CE
:100FC000710150917201609173017091740142300E
:100FD00051056105710524F44883DF91CF9108958F
:100FE0009091CA019883F9CF0F931F93CF93C82F85
:100FF0008B010E943306811183E1EC2FEE0FFF0B72
:10100000E95EFD4F0190F081E02D94819370F8012D
:101010009083CF911F910F910895E82FEE0FFF0B52
:10102000E95EFD4FA081B181ED91FC911197309760
:1010300089F01D921C928091CA01DF010380F48126
:10104000E02D12968C93129714961C921E92139771
:10105000309799F70895CF93C82F0E9433068111D6
:1010600083E1EC2FF0E0EE0FFF1FE35BFD4F0190FB
:10107000F081E02D909171019283A0916D01B0916A
:101080006E012D913C911197348323831196FC932B
:10109000EE9313969C9113979183208196959217C6
:1010A00068F430E0F901ED52FC4F9081915090834B
:1010B000220F331F9170922B13969C93CF9108951A
:1010C000CF93DF93C82F0E943306D82F8111D3E12D
:1010D000EC2FF0E0EE0FFF1FE35BFD4F0190F0817E
:1010E000E02DA0916D01B0916E01818113968C93DA
:1010F0001397838194818D939C93148213828091A2
:10110000CA0182830E940F048D2FDF91CF91089531
:10111000DC01ED91FC9184819581DC01ED91FC91E4
:1011200009941F93CF93DF93182FEB010E9433068E
:10113000811183E1E12FF0E0EE0FFF1FEF5FFD4F24
:101140000190F081E02D0190F081E02D0190F0817F
:10115000E02D40815181628173814C835D836E8378
:101160007F834481558166817781488359836A836F
:101170007B834085518562857385488759876A8757
:101180007B87DF91CF911F9108958F929F92AF92AD
:10119000BF92CF92DF92EF92FF920F931F93CF9364
:1011A000C82F8B010E943306811183E1EC2FF0E000
:1011B000EE0FFF1FEF5FFD4F0190F081E02D968550
:1011C000913081F542855385648575850190F08164
:1011D000E02D0190F081E02DC088D188E288F3886D
:1011E0004C155D056E057F0540F484809580A680D2
:1011F000B780480D591D6A1D7B1D4C195D096E098C
:101200007F09F8014083518362837383CF911F91DB
:101210000F91FF90EF90DF90CF90BF90AF909F9095
:101220008F90089585E0F2CFAF92BF92CF92DF9278
:10123000EF92FF920F931F93CF93DF93A82E6A0133
:101240007B01B22ED32F0E943306C82F8111C3E138
:10125000EA2DF0E0EE0FFF1FEF5FFD4F0190F081F0
:10126000E02D868581113CC0A081B1810D90BC919B
:10127000A02D50964D915D916D917C915397C40E28
:10128000D51EE61EF71E14968D919D910D90BC9172
:10129000A02D8C159D05AE05BF0548F4C81AD90AC6
:1012A000EA0AFB0A81E0C81AD108E108F108C286FF
:1012B000D386E486F58606831783B086D18781E0DE
:1012C0008687CF010E9490048C2FDF91CF911F91D0
:1012D0000F91FF90EF90DF90CF90BF90AF90089567
:1012E000C7E0F2CFAF92BF92CF92DF92EF92FF9220
:1012F0000F931F93CF93DF93C82F5A016B0179018E
:101300000E943306D82F8111D3E1EC2FF0E0EE0FCD
:10131000FF1FEF5FFD4F0190F081E02D8685811169
:1013200019C0A286B386C486D58606831783E08655
:10133000F18681E08687CF010E9490048D2FDF9196
:10134000CF911F910F91FF90EF90DF90CF90BF90C2
:10135000AF900895D7E0F2CF0F931F93CF93DF9311
:10136000C82F0E943306D82F8111D3E1EC2FF0E073
:10137000EE0FFF1FEF5FFD4F00811181F8018685A1
:10138000813059F4C8010E941405F80116868D2F8A
:10139000DF91CF911F910F910895D5E0F8CF60E0D4
:1013A0008EE00E94430B26E040E052EC61E070E0EA
:1013B00087EE93E00C94430FFF920F931F93CF930C
:1013C000DF9300915102802F0E94C2008EE00E94A4
:1013D000110CF82E192F6BEC71E087EE93E00E9450
:1013E000270D6091BF027091C0024AE050E087EE85
:1013F00093E00E94DD0D67ED71E087EE93E00E94BF
:10140000270D4AE050E06F2D712F87EE93E00E9488
:10141000DD0D64EE71E087EE93E00E94270D6DED27
:1014200071E087EE93E00E94270D8091BF029091BA
:10143000C002C9E8D0E0BE010E94A80F4AE050E017
:10144000BC0187EE93E00E94E40D63EE71E087EE4D
:1014500093E00E94270D2091BF023091C002C90184
:10146000BE010E94A80FFC01EE0FFF1FEF53FD4FBE
:10147000F0821183C90101969093C0028093BF024C
:101480002091BD023091BE02BE010E94A80FFC0156
:10149000C901BE010E94A80FE817F90731F42F5FB8
:1014A0003F4F3093BE022093BD0266EE71E087EE9F
:1014B00093E00E94270D8091BD029091BE0269E8E1
:1014C00070E00E94A80F4AE050E0BC0187EE93E074
:1014D0000E94DD0D68E872E087EE93E00E94270D20
:1014E000802FDF91CF911F910F91FF900C94C60038
:1014F0001F93CF93DF9310915102812F0E94C2005E
:101500008091C1029091C2029093B6028093B5027D
:101510009093B4028093B3028091BF029091C00275
:101520008A38910514F089E890E09093B202809394
:10153000B1021092BC021092BB02C9E8D0E08091C7
:10154000BB029091BC022091B1023091B20282178D
:1015500093070CF04DC02091BD023091BE02820F66
:10156000931FBE010E94A80F9093B0028093AF0218
:101570006EEE71E087EE93E00E94270D6091AF025E
:101580007091B0024AE050E087EE93E00E94DD0DDA
:1015900068E872E087EE93E00E94270DE091AF02C9
:1015A000F091B002EE0FFF1FEF53FD4F808191814C
:1015B0002091B5023091B6022817390724F4909390
:1015C000B6028093B5022091B3023091B40228177D
:1015D000390724F09093B4028093B3028091BB0248
:1015E0009091BC0201969093BC028093BB02A7CF5E
:1015F0008091B5029091B6022091B3023091B4026D
:10160000821B930B9093BA028093B90266EF71E04C
:1016100087EE93E00E94270D6091B9027091BA02A3
:101620004AE050E087EE93E00E94DD0D6091B90240
:101630007091BA0280E797E10E94A80F7093B802F8
:101640006093B7026BEF71E087EE93E00E94270D85
:101650006091B7027091B8024AE050E087EE93E0E3
:101660000E94DD0D68E872E087EE93E00E94270D8E
:10167000812FDF91CF911F910C94C60083EA91E0F6
:101680000C941B010895CF93DF9390E0FC01E8597F
:10169000FF4F249184589F4FFC0184918823C9F007
:1016A00090E0880F991FFC01E656FF4FA591B49179
:1016B000FC01E057FF4FC591D49161110DC09FB758
:1016C000F8948C91209582238C93888128232883F9
:1016D0009FBFDF91CF910895623051F49FB7F89486
:1016E0003C91822F809583238C93E8812E2BEFCF22
:1016F0008FB7F894EC912E2B2C938FBFEACF1F92CB
:101700000F920FB60F9211242F933F934F935F9335
:101710006F937F938F939F93AF93BF93EF93FF93B9
:101720008091DE039091DF03A091E003B091E1038B
:101730003091DD0323E0230F2D3798F50196A11D8D
:10174000B11D2093DD038093DE039093DF03A0930C
:10175000E003B093E1038091E2039091E303A09151
:10176000E403B091E5030196A11DB11D8093E2034E
:101770009093E303A093E403B093E5030E943E0B30
:10178000FF91EF91BF91AF919F918F917F916F9159
:101790005F914F913F912F910F900FBE0F901F902F
:1017A000189526E8230F0296A11DB11DCACF84B556
:1017B000826084BD84B5816084BD85B5826085BD4D
:1017C00085B5816085BDEEE6F0E080818160808333
:1017D000E1E8F0E010828081826080838081816016
:1017E0008083E0E8F0E0808181608083E1EBF0E0DD
:1017F000808184608083E0EBF0E080818160808381
:10180000EAE7F0E080818460808380818260808369
:101810008081816080838081806880831092C10094
:1018200008958E3008F08E502091C50190E4299FD4
:10183000900111248770822B80937C0080917A0024
:10184000806480937A0080917A0086FDFCCF80913D
:101850007800909179000895FFCFFFCFCF93DF9369
:10186000E82FEE0FFF0BE35EFD4FA081B1811496D0
:10187000ED91FC911597319712968D919C9113974C
:10188000E80FF91F1D968C911D97EF01219782306B
:1018900051F582EA90E08083988316969C91169782
:1018A00017968C911797EF01229798832197888339
:1018B0002197CF010A97188221978C179D07D9F796
:1018C00020E8EC012883EF012B9777971882219766
:1018D000EC17FD07D9F70D90BC91A02DED93FC936B
:1018E000DF91CF9108958EEB90E0D5CF0895789455
:1018F0000895F894089578940895F89408950895B3
:101900000E94D70B0E947F0C0E94420B0E94CF09BD
:101910008091E6030E94270690E080E00895809180
:1019200056028093E603089508951F920F920FB612
:101930000F9211242F933F934F935F936F937F9355
:101940008F939F93AF93BF93EF93FF93E091C60163
:10195000F091C7010995FF91EF91BF91AF919F91D0
:101960008F917F916F915F914F913F912F910F9048
:101970000FBE0F901F9018951F920F920FB60F92E7
:1019800011242F933F934F935F936F937F938F9384
:101990009F93AF93BF93EF93FF93E091C801F091B2
:1019A000C9010995FF91EF91BF91AF919F918F91DF
:1019B0007F916F915F914F913F912F910F900FBE4B
:1019C0000F901F901895CF92DF92EF92FF920F9396
:1019D0001F93CF93DF937C016A0110E000E00C15A8
:1019E0001D0581F0EB01D701ED91FC910190F08193
:1019F000E02D6991C7010995892B21F00F5F1F4FD9
:101A0000BE01EDCFC801DF91CF911F910F91FF90E3
:101A1000EF90DF90CF900895CF93DF93EC01DB013F
:101A2000AB2B81F0FB0101900020E9F73197AF016A
:101A3000461B570BE881F9810280F381E02DDF918D
:101A4000CF91099490E080E0DF91CF9108950C94BC
:101A50000C0DDC01ED91FC910190F081E02D0994D9
:101A600067E872E00C940C0D6F927F928F929F92B8
:101A7000AF92BF92CF92DF92EF92FF920F931F939C
:101A8000CF93DF93CDB7DEB7A1970FB6F894DEBF43
:101A90000FBECDBF3C01142F052F962E872E19A205
:101AA000223008F42AE05E0181E2A80EB11CC22EA9
:101AB000D12CF12CE12C612F702F892D982DA701AD
:101AC00096010E94BC0F812F902FA92DB82D122FA7
:101AD000032F942E852E6A3014F5605DF501629314
:101AE0005F018C159D05AE05BF0528F7BF01C30139
:101AF0000E940C0DA1960FB6F894DEBF0FBECDBFAD
:101B0000DF91CF911F910F91FF90EF90DF90CF90D9
:101B1000BF90AF909F908F907F906F900895695C79
:101B2000DDCFCF92DF92EF92FF920F931F93CF936F
:101B3000DF93EC016A017B01C901892B81F4E88103
:101B4000F9810190F081E02D642FCE01DF91CF91DA
:101B50001F910F91FF90EF90DF90CF9009942A3062
:101B60003105F1F42AE0F7FE1BC06DE2CE010E94C0
:101B7000290D8C0144275527BA014C195D096E09BE
:101B80007F092AE0CE010E94340D800F911FDF9162
:101B9000CF911F910F91FF90EF90DF90CF9008951C
:101BA000B701A601CE01DF91CF911F910F91FF9058
:101BB000EF90DF90CF900C94340D9A01AB01770F2A
:101BC000660B770B0C94910D0F931F93CF93DF93BC
:101BD000D82FC92F0E94DD0D8C018D2F9C2F0E94C4
:101BE000300D800F911FDF91CF911F910F910895BC
:101BF0002F932FB72F938F939F93EF93FF93E091A2
:101C0000F703F091F8038081E091FD03F091FE036A
:101C100082FD19C09081809100048F5F8F732091A5
:101C20000104821741F0E0910004F0E0E951FC4F1B
:101C3000958F80930004FF91EF919F918F912F9149
:101C40002FBF2F9118958081F6CF1F920F920FB65C
:101C50000F9211242F933F934F935F936F937F9332
:101C60008F939F93AF93BF93EF93FF9387EE93E090
:101C70000E94B40EFF91EF91BF91AF919F918F9110
:101C80007F916F915F914F913F912F910F900FBE78
:101C90000F901F901895E7EEF3E01382128288EE02
:101CA00093E0A0E0B0E084839583A683B7838EE8B9
:101CB00092E09183808385EC90E09587848784EC23
:101CC00090E09787868780EC90E0918B808B81EC09
:101CD00090E0938B828B82EC90E0958B848B86ECEA
:101CE00090E0978B868B118E128E138E148E089532
:101CF000FC01818D228D90E0805C9F4F821B9109B9
:101D00008F7399270895FC01918D828D981731F07A
:101D1000828DE80FF11D858D90E008958FEF9FEF84
:101D20000895FC01918D828D981761F0A28DAE0F00
:101D3000BF2FB11D5D968C91928D9F5F9F73928F87
:101D400090E008958FEF9FEF0895FC01538D448D2F
:101D5000252F30E0842F90E0821B930B541710F056
:101D6000CF96089501970895FC01A48DA80FB92F6F
:101D7000B11DA35ABF4F2C91848D90E001968F73B3
:101D80009927848FA689B7892C93A089B1898C91D2
:101D9000837080648C93938D848D981306C0028821
:101DA000F389E02D80818F7D80830895CF93DF9329
:101DB000EC01888D8823B9F0AA89BB89E889F98963
:101DC0008C9185FD03C0808186FD0DC00FB607FC98
:101DD000F7CF8C9185FFF2CF808185FFEDCFCE01CB
:101DE0000E94B40EE9CFDF91CF910895EF92FF9258
:101DF0000F931F93CF93DF93EC01F62E81E0888F32
:101E00009B8D8C8D98131AC0E889F989808185FF94
:101E100015C09FB7F894EE89FF896083E889F98936
:101E200080818370806480839FBF81E090E0DF9138
:101E3000CF911F910F91FF90EF9008950B8D10E0BF
:101E40000F5F1F4F0F731127E02E8C8D8E110CC06A
:101E50000FB607FCFACFE889F989808185FFF5CFB5
:101E6000CE010E94B40EF1CFEB8DEC0FFD2FF11DD2
:101E7000E35AFF4FF0829FB7F8940B8FEA89FB89F2
:101E800080818062D0CFCF92DF92EF92FF921F933A
:101E9000CF93DF93EC016A017B01122FE889F98966
:101EA00082E08083C11481EED806E104F104A1F040
:101EB00060E079E08DE390E0A70196010E94BC0FFD
:101EC0002150310941095109569547953795279574
:101ED000211580E1380798F0E889F989108260E8D7
:101EE00074E88EE190E0A70196010E94BC0F21509A
:101EF0003109410951095695479537952795EC8544
:101F0000FD853083EE85FF852083188EEC89FD8961
:101F10001083EA89FB89808180618083EA89FB895B
:101F2000808188608083EA89FB89808180688083E2
:101F3000EA89FB8980818F7D8083DF91CF911F911A
:101F4000FF90EF90DF90CF900895F8940C94F80FE5
:101F500097FB072E16F4009407D077FD09D00E9456
:101F6000DE0F07FC05D03EF4909581959F4F0895B4
:101F7000709561957F4F0895A1E21A2EAA1BBB1B95
:101F8000FD010DC0AA1FBB1FEE1FFF1FA217B30745
:101F9000E407F50720F0A21BB30BE40BF50B661F5B
:101FA000771F881F991F1A9469F76095709580951F
:101FB00090959B01AC01BD01CF010895AA1BBB1BED
:101FC00051E107C0AA1FBB1FA617B70710F0A61B39
:101FD000B70B881F991F5A95A9F780959095BC015A
:101FE000CD010895EE0FFF1F0590F491E02D0994A7
:041FF000F894FFCF93
:101FF40000000000000000000000000000000000DD
:1020040000000000000000000000000000000000CC
:1020140000000000000000000000000000000000BC
:1020240000000000000000000000000000000000AC
:10203400000000000000000000000000000000009C
:10204400000000000000000000000000000000008C
:102054000000000000000000FF00003F020000D864
:1020640003FFFFFFFFFFFFFFFF000005020000006A
:10207400001400000014000000020E020000000022
:10208400D0030000D003000002000000020400009E
:1020940000010001000000FFFF000001000000003B
:1020A40000000000000000000000000300FF00002A
:1020B4000300FF000001940C940CFF6974656D43E8
:1020C4006F756E743A20002041303A2000686561D3
:1020D400643A0009090071756575653A2000646108
:1020E40074613A0920000A52523A000A4852253AC9
:1020F400008A017B01A30188080B02140601A301D5
:10210400880814021406009E019901D803310223A1
:10211400023F02E20584048000DC090000010201A0
:1021240000040510058000780A00000001010090F9
:1021340005920550002C0C000002000100C001BBF8
:10214400010001010001002907F7060007D90679FB
:1021540004760666049F0678071D0625062B086884
:102164000760088F079108D807C50818061409B234
:10217400077209AC09F4070D0A0000000000F60E0E
:0C218400E30CA50ED60E780E910E830E13
:00000001FF
