:100000000C945E000C94C60D0C94ED0D0C948600BF
:100010000C9486000C9486000C9486000C94860048
:100020000C9486000C9486000C9486000C94860038
:100030000C9486000C9486000C9486000C94860028
:100040000C94B00C0C9486000C94110F0C943E0F81
:100050000C9486000C9486000C9486000C94860008
:100060000C9486000C948600000000080002010039
:100070000003040700000000000000000102040863
:100080001020408001020408102001020408102002
:10009000040404040404040402020202020203032E
:1000A0000303030300000000250028002B000000CC
:1000B0000000240027002A00C00D640F11241FBE79
:1000C000CFEFD8E0DEBFCDBF13E0A0E0B1E0E6EDBA
:1000D000F1E202C005900D92A830B107D9F725E0F2
:1000E000A8E0B3E001C01D92A634B207E1F710E02A
:1000F000CEE5D0E004C02197FE010E94E310CC358C
:10010000D107C9F70E94B10D0C94BE100C940000E9
:10011000E2E10E942D010895E9E00E942D01089579
:10012000EAE00E942D010895E1E00E942D0108956A
:10013000E3E00E942D010895E7E00E942D0108955B
:10014000E5E00E942D010895E0E00E942D01089550
:10015000E2E00E942D010895E4E00E942D0108953F
:10016000ECE00E942D010895E8E00E942D01089521
:10017000EEE00E942D010895E4E10E942D01089512
:10018000E0E10E942D010895E7E10E942D0108950C
:10019000E6E00E942D010895EBE00E942D010895F4
:1001A000EDE00E942D010895EFE00E942D010895D9
:1001B000E1E10E942D010895E3E10E942D010895DF
:1001C000E5E10E942D010895E6E10E942D010895C8
:1001D00021968A929A92AA92BA92CA92DA92EA9254
:1001E000FA920A931A932197E0916901F0916A01BA
:1001F0000080F181E02DC083D1830895C0916B010F
:10020000D0916C01E881F981C081D1812196199149
:100210000991F990E990D990C990B990A9909990D5
:100220008990219708952F903F90E7E6F1E0CDB7B0
:10023000DEB7EDBFFEBF3F922F9208952F903F9003
:10024000CDBFDEBF3F922F920895E0E80E942D01BE
:100250000895E0E40E942D0108952F923F924F925D
:100260005F926F927F922FB62F92CF93DF937E2E65
:10027000F894E0910001EF5FE0930001E13011F4A8
:100280000E941301E0E0E0937901E72DE07849F066
:100290000E945C05F0917A01F17071F00E941904DE
:1002A0000BC0E72DEC3140F4EE0FF0E0EA53FD4FC8
:1002B0000190F081E02D0995F0917901EF2FE17027
:1002C00059F0F27011F00E94E8008F938F2F0E9476
:1002D00063038F910E94FE00209100012150209322
:1002E0000001222311F40E941E01DF91CF912F9073
:1002F0002FBE7F906F905F904F903F902F9008950A
:10030000FC014081FB013081842F8F7090E0B0E0D0
:10031000A0E0B695A795979587958B5C9C4FFC01BF
:100320008081242F281B21704E70242B832F8F70E7
:1003300090E0B0E0A0E0B695A795979587958B5C87
:100340009C4FFC018081932F981B91703E70932BE2
:1003500041E050E0291710F050E040E0CA01089554
:10036000AF92BF92CF92DF92EF92FF920F931F93C3
:10037000CF93DF938C01CA01DB016A017B01F69404
:10038000E794D794C79482309105A105B10580F018
:10039000880F991FE801C80FD91F5601AA0CBB1C72
:1003A000A00EB11EBE01C5010E948001892B59F427
:1003B000DF91CF911F910F91FF90EF90DF90CF9041
:1003C000BF90AF90089598818981F5012081318196
:1003D0003983288390838183D701C601D0CF4F9280
:1003E0005F926F927F928F929F92AF92BF92CF92C5
:1003F000DF92EF92FF92CF93DF9300D000D000D036
:10040000CDB7DEB78D839E836A017B01AD81BE814E
:100410008C91282F30E050E040E029833A834B83D1
:100420005C8346015701880C991CAA1CBB1C2981BE
:100430003A814B815C81281539054A055B05A8F492
:1004400026960FB6F894DEBF0FBECDBFDF91CF91D9
:10045000FF90EF90DF90CF90BF90AF909F908F90E4
:100460007F906F905F904F900895240135013FEF8A
:10047000431A530A630A730A89819A81AB81BC814A
:1004800084159505A605B70590F0B201660F771F94
:10049000AD81BE816A0F7B1FC401880F991F8A0F2F
:1004A0009B1F0E948001892B11F0530142013401EE
:1004B000660C771CED81FE816E0E7F1ECC0CDD1C60
:1004C000CE0EDF1EB301C6010E948001892B09F404
:1004D000B7CFD6019C9111968C911197F301208191
:1004E00031812D933C93908381837501640199CF71
:1004F000E8E6F4E040814F5F408350E070E060E068
:10050000E82FEE0FFF0BE357FD4F0190F081E02D38
:10051000238530E0F901EB5CFC4F90819150908392
:10052000FA01EE0FFF1FE859FB4F220F331F9170A6
:10053000922B9083818388E694E00C94B001E8E6E6
:10054000F4E040814F5F408350E070E060E0FA01EA
:10055000EE0FFF1FE859FB4FA82FAA0FBB0BA9579F
:10056000BD4F0D90BC91A02D13969C9190838183DB
:1005700088E694E00C94B001CF93DF93E8E6F4E0D2
:1005800080819FEF980F9083D281C38190E0880F84
:10059000991F88599B4FDC018D919C919383828395
:1005A00041E050E060E070E0CF010E94EF018D2F4C
:1005B0009C2FDF91CF91089580910803811115C080
:1005C00040917101509172016091730170917401B9
:1005D0004F3F9FEF59076907790751F042305105A6
:1005E0006105710524F481E0089584E0089582E0B6
:1005F0000895CF93DF93880F990BFC01E357FD4FCC
:100600000190F081E02D0084F185E02D3097E1F03C
:100610002281211119C021E0228389579D4FEC01CD
:10062000A881B98113968C9113978183208130E042
:10063000F901EB5CFC4F808181508083220F331FD6
:100640008170822B13968C93DF91CF910895CF9375
:10065000DF93880F990BFC01E357FD4F0190F08168
:10066000E02D0084F185E02D309761F0228121306A
:1006700049F4128289579D4FEC01A881B98181818B
:1006800013968C93DF91CF9108958091750190918D
:100690007601A0917701B09178014091710150915C
:1006A00072016091730170917401481759076A07CC
:1006B0007B0741F0E0916F01F091700121E024830C
:1006C0000C949F020895CF93DF93D0E0C0E088237D
:1006D00089F0C0916901D0916A01E0916D01F091BA
:1006E0006E018481833031F081E0848380917101D7
:1006F0000E949F02E0916F01F0917001F0936E01F2
:10070000E0936D0180916B0190916C0190936A016F
:100710008093690180917501309176012091770174
:10072000909178018093710130937201209373014D
:100730009093740192E094830E94F902CE01DF91BC
:10074000CF910895809171010E942703E0916D017E
:10075000F0916E018281882319F085E084830895E9
:1007600014820895CF93DF93282F220F330BF901C2
:10077000E957FD4FC081D1819A8123573D4FD9015F
:10078000ED91FC912485921780F4911105C095E0BC
:100790009C8391E090937A010E9478028A818F5F16
:1007A0008A8380E0DF91CF91089584E0FBCFE82F2A
:1007B000EE0FFF0BE957FD4F0190F081E02D118204
:1007C00010820C945F0D1F93CF93DF930E94BC02A5
:1007D000182F892F492F092E000C550B660B770B0C
:1007E000409375015093760160937701709378017F
:1007F000292F220F330BF901E957FD4FC081D18119
:10080000D0937001C0936F0123573D4FF9012081B0
:10081000318130936C0120936B019C81953019F4E8
:100820000E94D7031B8310927A01DF91CF911F9111
:100830000895E0917501F0917601EE0FFF1FE957E1
:10084000FD4F0190F081E02D90916A04838189171A
:1008500040F40E9445030E94E30383E08093790102
:10086000089580E0FBCF81E0809379010C94E3034D
:10087000CF93DF93C1E0D0E001C0CC0F8A95EAF7B7
:1008800082E00E94B2038091C3028C2319F080E0C1
:100890000E94B2038091C4028C2319F081E00E946F
:1008A000B2038091C1028C2349F080917102909132
:1008B000720221E0FC0126870E949A048091C20204
:1008C000C82359F0809173029091740221E0FC01D9
:1008D0002687DF91CF910C949A04DF91CF910895F0
:1008E0000E943D0681110E945D06E0916D01F0912C
:1008F0006E0180819181892B21F0809171010E948C
:1009000017080C9482070E943D0681110E945D0623
:10091000E0916D01F0916E0180819181892B21F030
:10092000809171010E9417080C946D0781E08093FB
:1009300009030895CF92DF92EF92FF920F931F93D6
:10094000CF93DF93FC01A081B1810D90BC91A02DCC
:1009500054968D919C915597009709F445C0428516
:1009600053856485758530E020E0EC01CA84DB8422
:10097000EC84FD844C155D056E057F0508F049C0CB
:100980008C0113830283358324830115110519F02B
:10099000E801FD83EC832115310509F444C0E90128
:1009A000FB83EA835696CD91DC9157970A851B8588
:1009B0002C853D855096CD90DD90ED90FC90539721
:1009C0000C151D052E053F0598F5C416D506E6063F
:1009D000F70628F0401751076207730788F4579607
:1009E000FC93EE9356970CC05596FC93EE93549758
:1009F0005796FC93EE9356971582148213821282B7
:100A0000DF91CF911F910F91FF90EF90DF90CF90EA
:100A10000895EC010A811B819C010115110509F45F
:100A2000B0CFC801A2CF5596FC93EE935497BACF9E
:100A3000C416D506E606F70618F7CCCFCF93DF939A
:100A4000FC01A081B1810D90BC91A02DC281D38108
:100A500054968D919C9155978E179F0721F455962A
:100A6000DC93CE93549756968D919C9157978E1701
:100A70009F0721F45796DC93CE935697209721F049
:100A8000848195819D838C830480F581E02D30974E
:100A900011F0D383C28356968D919C915797892BE1
:100AA00041F454968D919C91559757969C938E93B3
:100AB0005697DF91CF910895EF92FF920F931F9376
:100AC000CF93DF93EC0180910903882309F4A8C038
:100AD0008C859D85AE85BF850196A11DB11D8C8736
:100AE0009D87AE87BF87488159816A817B81841742
:100AF0009507A607B70709F093C088899989AA893D
:100B0000BB890196A11DB11D4C815D816E817F81E4
:100B1000481759076A077B0718F480E090E0DC016A
:100B2000888B998BAA8BBB8B1C861D861E861F8685
:100B30000E891F890115110509F472C0F80142855B
:100B4000538564857585481759076A077B0709F03F
:100B500067C09F010280F381E02D309749F0428504
:100B600053856485758584179507A607B70789F3AC
:100B7000D80114968D919C91009729F0DC01139671
:100B8000FC93EE931297309711F0958384838C89B0
:100B90009D890817190711F4FD8BEC8B309709F428
:100BA00046C0FF8BEE8BF901138212827801D801C7
:100BB00012960D911C911397ED91FC910280F38197
:100BC000E02DC7010995F70186819781A085B18540
:100BD0000097A105B10581F142855385648575852E
:100BE000840F951FA61FB71F4C815D816E817F8189
:100BF000481759076A077B0740F440955095609560
:100C00007095840F951FA61FB71FF70182879387E2
:100C1000A487B587C7010E949A040115110531F612
:100C2000DF91CF911F910F91FF90EF9008958C89E4
:100C30009D899F8B8E8BB7CF1686EFCFFC0182816B
:100C40000C94B2030E943D06809168010895809340
:100C500068010E9438040E9496040C9433040C949A
:100C60005E0DCF93C82F0E94DC02811102C00E944A
:100C7000A70D8C2FCF910C948C002091160321305E
:100C8000D1F040910E0350910F03609110037091C9
:100C900011038091120390911303A0911403B0915A
:100CA0001503842B952BA62BB72B21E0892B8A2BA0
:100CB0008B2B09F420E0822F0895109216031092D6
:100CC0001203109213031092140310921503109242
:100CD0000E0310920F0310921003109211038091D3
:100CE0000A0390910B03A0910C03B0910D03809324
:100CF000170390931803A0931903B0931A03089550
:100D00000E94AA0D8091170390911803A0911903D6
:100D1000B0911A030196A11DB11D80931703909302
:100D20001803A0931903B0931A03809112039091B2
:100D30001303A0911403B09115030196A11DB11DD9
:100D40008093120390931303A0931403B09315039D
:100D500008958091120390911303A0911403B09110
:100D600015030097A105B10569F140911703509152
:100D700018036091190370911A03415051096109D8
:100D800071094093170350931803609319037093EC
:100D90001A030197A109B1098093120390931303D9
:100DA000A0931403B0931503809117039091180337
:100DB000A0911903B0911A03892B8A2B8B2B11F464
:100DC0000C94A80D08958091120390911303A091A3
:100DD0001403B091150340910E0350910F036091DD
:100DE000100370911103842B952BA62BB72B892B05
:100DF0008A2B8B2B29F40E94AA0D81E08093160385
:100E0000089580911603882321F0109216030C9404
:100E1000A80D08950E94AE0D8091170390911803BC
:100E2000A0911903B0911A030196A11DB11D8093E1
:100E3000170390931803A0931903B0931A0380919A
:100E40000E0390910F03A0911003B091110301962E
:100E5000A11DB11D80930E0390930F03A093100367
:100E6000B0931103089580910E0390910F03A09108
:100E70001003B09111030097A105B10569F14091EC
:100E80001703509118036091190370911A03415090
:100E90005109610971094093170350931803609336
:100EA000190370931A030197A109B10980930E03E6
:100EB00090930F03A0931003B09311038091170335
:100EC00090911803A0911903B0911A03892B8A2BD2
:100ED0008B2B11F40C94AC0D08950E943D068111EA
:100EE00083E10895CF93C82F0E943D068C2F0E9466
:100EF000B203C82F80917A0181110E9419048C2FAE
:100F0000CF910895CF930E943D06C82F8111C3E170
:100F1000E0916D01F0916E018281815082830E9487
:100F2000A20381E0809379010E94E3038C2FCF918B
:100F30000895CF93C82F0E943D06E0916D01F09176
:100F40006E018281815082838C2F0E94B203C82F50
:100F500081110AC00E94A20381E0809379010E945E
:100F6000E3038C2FCF910895E0916D01F0916E0114
:100F700082818F5F8283F5CFCF930E943D06C82F79
:100F80008111C3E1809171010E9427030E9419041D
:100F90008091710190917201A0917301B0917401DF
:100FA00040917501509176016091770170917801BF
:100FB00084179507A607B70711F40E94F9028C2F32
:100FC000CF910895CF93DF93EC010E943D068111EC
:100FD00083E14091710150917201609173017091B0
:100FE0007401423051056105710524F44883DF9195
:100FF000CF9108959091CA019883F9CF0F931F93D1
:10100000CF93C82F8B010E943D06811183E1EC2F05
:10101000EE0FFF0BE957FD4F0190F081E02D948119
:101020009370F8019083CF911F910F910895E82F4D
:10103000EE0FFF0BE957FD4FA081B181ED91FC91BF
:101040001197309789F01D921C928091CA01DF019F
:101050000380F481E02D12968C93129714961C92C3
:101060001E921397309799F70895CF93C82F0E9437
:101070003D06811183E1EC2FF0E0EE0FFF1FE354FA
:10108000FD4F0190F081E02D909171019283A0912C
:101090006D01B0916E012D913C91119734832383A2
:1010A0001196FC93EE9313969C9113979183208154
:1010B0009695921768F430E0F901EB5CFC4F908153
:1010C00091509083220F331F9170922B13969C9313
:1010D000CF910895CF93DF93C82F0E943D06D82F5C
:1010E0008111D3E1EC2FF0E0EE0FFF1FE354FD4F31
:1010F0000190F081E02DA0916D01B0916E01818190
:1011000013968C931397838194818D939C9314826F
:1011100013828091CA0182830E9419048D2FDF916E
:10112000CF910895DC01ED91FC9184819581DC01E2
:10113000ED91FC9109941F93CF93DF93182FEB014E
:101140000E943D06811183E1E12FF0E0EE0FFF1FC9
:10115000EF58FD4F0190F081E02D0190F081E02DDE
:101160000190F081E02D40815181628173814C8337
:101170005D836E837F834481558166817781488357
:1011800059836A837B83408551856285738548874F
:1011900059876A877B87DF91CF911F9108958F923E
:1011A0009F92AF92BF92CF92DF92EF92FF920F93F6
:1011B0001F93CF93C82F8B010E943D06811183E1BD
:1011C000EC2FF0E0EE0FFF1FEF58FD4F0190F08184
:1011D000E02D9685913081F542855385648575852E
:1011E0000190F081E02D0190F081E02DC088D18840
:1011F000E288F3884C155D056E057F0540F4848018
:101200009580A680B780480D591D6A1D7B1D4C191D
:101210005D096E097F09F8014083518362837383FE
:10122000CF911F910F91FF90EF90DF90CF90BF90E3
:10123000AF909F908F90089585E0F2CFAF92BF92CC
:10124000CF92DF92EF92FF920F931F93CF93DF9392
:10125000A82E6A017B01B22ED32F0E943D06C82F13
:101260008111C3E1EA2DF0E0EE0FFF1FEF58FD4FB3
:101270000190F081E02D868581113CC0A081B18173
:101280000D90BC91A02D50964D915D916D917C91EA
:101290005397C40ED51EE61EF71E14968D919D9190
:1012A0000D90BC91A02D8C159D05AE05BF0548F491
:1012B000C81AD90AEA0AFB0A81E0C81AD108E1086B
:1012C000F108C286D386E486F58606831783B08646
:1012D000D18781E08687CF010E949A048C2FDF910D
:1012E000CF911F910F91FF90EF90DF90CF90BF9023
:1012F000AF900895C7E0F2CFAF92BF92CF92DF9246
:10130000EF92FF920F931F93CF93DF93C82F5A0151
:101310006B0179010E943D06D82F8111D3E1EC2F9A
:10132000F0E0EE0FFF1FEF58FD4F0190F081E02D30
:101330008685811119C0A286B386C486D5860683A8
:101340001783E086F18681E08687CF010E949A04A8
:101350008D2FDF91CF911F910F91FF90EF90DF9034
:10136000CF90BF90AF900895D7E0F2CF0F931F9327
:10137000CF93DF93C82F0E943D06D82F8111D3E170
:10138000EC2FF0E0EE0FFF1FEF58FD4F00811181B1
:10139000F8018685813059F4C8010E941E05F801C4
:1013A00016868D2FDF91CF911F910F910895D5E073
:1013B000F8CF60E08EE00E94460C26E040E052EC60
:1013C00061E070E089E493E00C945C106BEC71E0F8
:1013D00089E493E00E94580E65ED71E089E493E0A2
:1013E0000E94580E6091290370912A034AE050E050
:1013F00089E493E00E940A0F69E672E089E493E0D1
:101400000E94580E8EE00E94420D90931E0380931E
:101410001D038091290390912A03853091050CF0DA
:1014200059C081E00E94CC00E0912903F0912A0389
:10143000EE0FFF1FE55DFC4F80911D0390911E0391
:101440009183808361EE71E089E493E00E94580EFD
:1014500060911D0370911E034AE050E089E493E01F
:101460000E940A0F69E672E089E493E00E94580E38
:101470008091290390912A03019690932A038093E7
:10148000290380911D0390911E030A978C3E93407F
:10149000E0F081E090E0909326038093250366EED0
:1014A00071E089E493E00E94580E609125037091E9
:1014B00026034AE050E089E493E00E940A0F61E5C8
:1014C00072E089E493E00C94580E10922603109277
:1014D0002503E5CF059719F065EF71E0F2CF809114
:1014E0002B0390912C0390932203809321039093DC
:1014F000200380931F0362E072E089E493E00E947E
:10150000580E60912103709122034AE050E089E473
:1015100093E00E940A0F69E672E089E493E00E947A
:10152000580E6DE072E089E493E00E94580E6091DD
:101530001F03709120034AE050E089E493E00E9489
:101540000A0F109224031092230367E172E089E4EA
:1015500093E00E94580EE0912303F0912403EE0FD4
:10156000FF1FE55DFC4F608171814AE050E089E436
:1015700093E00E940A0FE0912303F0912403EE0F01
:10158000FF1FE55DFC4F8081918120912103309107
:1015900022032817390724F4909322038093210310
:1015A00020911F03309120032817390724F09093CE
:1015B000200380931F038091290390912A030197B0
:1015C00090932A03809329036EE172E089E493E00B
:1015D0000E94580E6091290370912A034AE050E05E
:1015E00089E493E00E940A0F62E072E089E493E0EC
:1015F0000E94580E60912103709122034AE050E04E
:1016000089E493E00E940A0F69E672E089E493E0BE
:101610000E94580E6DE072E089E493E00E94580E3B
:1016200060911F03709120034AE050E089E493E049
:101630000E940A0F809123039091240301969093B6
:1016400024038093230305970CF47FCF67E272E0B5
:1016500089E493E00E94580E609121037091220367
:101660004AE050E089E493E00E940A0F69E672E0E4
:1016700089E493E00E94580E6DE072E089E493E003
:101680000E94580E60911F03709120034AE050E0C1
:1016900089E493E00E940A0F61E572E089E493E037
:1016A0000E94580E6BE372E089E493E00E94580EAA
:1016B0006091290370912A034AE050E089E493E0A5
:1016C0000E940A0F809121039091220320911F0311
:1016D00030912003821B930B853F9140BCF0109208
:1016E00028031092270361E472E089E493E00E94EA
:1016F000580E60912703709128034AE050E089E476
:1017000093E00E940A0F81E00C94D00081E090E009
:101710009093280380932703E6CF6AE472E089E47C
:1017200093E00E94580E81E00E94CC0063E572E0D5
:1017300089E493E00E94580E60912503709126037E
:101740004AE050E089E493E00E940A0F69E672E003
:1017500089E493E00E94580E6AE572E089E493E020
:101760000E94580E60912703709128034AE050E0D0
:1017700089E493E00E940A0F61E572E089E493E056
:101780000E94580E81E00E94CC00209127033091E6
:10179000280380912503909126032130310501F51E
:1017A0000097F1F461E672E089E493E00E94580E3C
:1017B00080911B0390911C03019690931C038093CE
:1017C0001B0380FF17C061E08DE00E94820C81E066
:1017D0000E94D00061E572E089E493E00C94580E19
:1017E000009751F4232B99F766E672E089E493E0C1
:1017F0000E94580E60E0E8CF019749F76BE672E06F
:1018000089E493E00E94580E80911B0390911C0381
:10181000019690931C0380931B039C012370332734
:10182000232BA9F687709927892B69F2E3CF83EAE6
:1018300091E00C9425010895843099F038F48230B9
:10184000C1F0833041F0813081F008958730A1F0FC
:101850008830C1F00895809180008F778093800058
:101860000895809180008F7DF9CF84B58F7784BDF6
:10187000089584B58F7DFBCF8091B0008F778093E2
:10188000B00008958091B0008F7DF9CFCF93DF93A2
:1018900090E0FC01E458FF4F249180579F4FFC01DA
:1018A00084918823C9F090E0880F991FFC01E255CC
:1018B000FF4FA591B491FC01EC55FF4FC591D49118
:1018C00061110DC09FB7F8948C91209582238C9361
:1018D0008881282328839FBFDF91CF9108956230AC
:1018E00051F49FB7F8943C91822F809583238C9379
:1018F000E8812E2BEFCF8FB7F894EC912E2B2C9301
:101900008FBFEACF1F93CF93DF93162F282F30E09E
:10191000F901E859FF4F8491F901E458FF4FD49140
:10192000F901E057FF4FC491CC23A1F081110E942F
:101930001C0CEC2FF0E0EE0FFF1FEC55FF4FA591B4
:10194000B4918FB7F894EC91111108C0D095DE23B3
:10195000DC938FBFDF91CF911F910895DE2BF8CFDD
:101960001F920F920FB60F9211242F933F934F9314
:101970005F936F937F938F939F93AF93BF93EF93F7
:10198000FF938091400390914103A0914203B09155
:10199000430330913F0323E0230F2D3798F5019641
:1019A000A11DB11D20933F038093400390934103F9
:1019B000A0934203B0934303809144039091450365
:1019C000A0914603B09147030196A11DB11D8093DC
:1019D000440390934503A0934603B09347030E94AA
:1019E000170CFF91EF91BF91AF919F918F917F91D4
:1019F0006F915F914F913F912F910F900FBE0F907C
:101A00001F90189526E8230F0296A11DB11DCACF7D
:101A100084B5826084BD84B5816084BD85B58260F3
:101A200085BD85B5816085BDEEE6F0E08081816091
:101A30008083E1E8F0E01082808182608083808191
:101A400081608083E0E8F0E0808181608083E1EB69
:101A5000F0E0808184608083E0EBF0E08081816051
:101A60008083EAE7F0E08081846080838081826007
:101A700080838081816080838081806880831092F0
:101A8000C10008958E3008F08E502091C50190E479
:101A9000299F900111248770822B80937C00809174
:101AA0007A00806480937A0080917A0086FDFCCF72
:101AB00080917800909179000895FFCFFFCFCF9368
:101AC000DF93E82FEE0FFF0BE357FD4FA081B181AD
:101AD0001496ED91FC911597319712968D919C91EA
:101AE0001397E80FF91F1D968C911D97EF01219711
:101AF000823051F58CEA90E08083988316969C9111
:101B0000169717968C911797EF0122979883219734
:101B100088832197CF010A97188221978C179D07F8
:101B2000D9F720E8EC012883EF012B9777971882EB
:101B30002197EC17FD07D9F70D90BC91A02DED93DF
:101B4000FC93DF91CF91089588EC90E0D5CF089574
:101B500078940895F894089578940895F8940895E1
:101B600008950E94080D0E94B00D0E941B0C0E9457
:101B7000D909809148030E94310690E080E00895E1
:101B80008091C50280934803089508951F920F9293
:101B90000FB60F9211242F933F934F935F936F9340
:101BA0007F938F939F93AF93BF93EF93FF93E091B6
:101BB000C601F091C7010995FF91EF91BF91AF91D7
:101BC0009F918F917F916F915F914F913F912F9155
:101BD0000F900FBE0F901F9018951F920F920FB687
:101BE0000F9211242F933F934F935F936F937F93A3
:101BF0008F939F93AF93BF93EF93FF93E091C801AF
:101C0000F091C9010995FF91EF91BF91AF919F911B
:101C10008F917F916F915F914F913F912F910F9095
:101C20000FBE0F901F901895CF92DF92EF92FF9208
:101C30000F931F93CF93DF937C016A0110E000E0C4
:101C40000C151D0581F0EB01D701ED91FC91019080
:101C5000F081E02D6991C7010995892B21F00F5F73
:101C60001F4FBE01EDCFC801DF91CF911F910F91A2
:101C7000FF90EF90DF90CF900895CF93DF93EC012A
:101C8000DB01AB2B81F0FB0101900020E9F73197DC
:101C9000AF01461B570BE881F9810280F381E02DEB
:101CA000DF91CF91099490E080E0DF91CF9108958A
:101CB0000C943D0EDC01ED91FC910190F081E02D42
:101CC00009946F927F928F929F92AF92BF92CF9220
:101CD000DF92EF92FF920F931F93CF93DF93CDB7D5
:101CE000DEB7A1970FB6F894DEBF0FBECDBF3C01A3
:101CF000142F052F962E872E19A2223008F42AE0E1
:101D00005E0181E2A80EB11CC22ED12CF12CE12C77
:101D1000612F702F892D982DA70196010E94C11067
:101D2000812F902FA92DB82D122F032F942E852EA1
:101D30006A3014F5605DF50162935F018C159D05B5
:101D4000AE05BF0528F7BF01C3010E943D0EA19655
:101D50000FB6F894DEBF0FBECDBFDF91CF911F91BC
:101D60000F91FF90EF90DF90CF90BF90AF909F903A
:101D70008F907F906F900895695CDDCFCF92DF9256
:101D8000EF92FF920F931F93CF93DF93EC016A01C1
:101D90007B01C901892B81F4E881F9810190F081EF
:101DA000E02D642FCE01DF91CF911F910F91FF9015
:101DB000EF90DF90CF9009942A303105F1F42AE0BA
:101DC000F7FE1BC06DE2CE010E945A0E8C01442723
:101DD0005527BA014C195D096E097F092AE0CE0129
:101DE0000E94610E800F911FDF91CF911F910F9183
:101DF000FF90EF90DF90CF900895B701A601CE013C
:101E0000DF91CF911F910F91FF90EF90DF90CF90D6
:101E10000C94610E9A01AB01770F660B770B0C9453
:101E2000BE0E2F932FB72F938F939F93EF93FF9314
:101E3000E0915903F0915A038081E0915F03F091A2
:101E4000600382FD19C09081809162038F5F8F7360
:101E500020916303821741F0E0916203F0E0E75BB9
:101E6000FC4F958F80936203FF91EF919F918F912B
:101E70002F912FBF2F9118958081F6CF1F920F922F
:101E80000FB60F9211242F933F934F935F936F934D
:101E90007F938F939F93AF93BF93EF93FF9389E4C7
:101EA00093E00E94CD0FFF91EF91BF91AF919F9171
:101EB0008F917F916F915F914F913F912F910F90F3
:101EC0000FBE0F901F901895E9E4F3E01382128281
:101ED00088EE93E0A0E0B0E084839583A683B78387
:101EE0008AEF92E09183808385EC90E095878487E8
:101EF00084EC90E09787868780EC90E0918B808BD4
:101F000081EC90E0938B828B82EC90E0958B848BBC
:101F100086EC90E0978B868B118E128E138E148E2A
:101F20000895FC01818D228D90E0805C9F4F821B83
:101F300091098F7399270895FC01918D828D9817CF
:101F400031F0828DE80FF11D858D90E008958FEFBF
:101F50009FEF0895FC01918D828D981761F0A28DFD
:101F6000AE0FBF2FB11D5D968C91928D9F5F9F73B9
:101F7000928F90E008958FEF9FEF0895FC01538DAD
:101F8000448D252F30E0842F90E0821B930B541753
:101F900010F0CF96089501970895FC01A48DA80F25
:101FA000B92FB11DA35ABF4F2C91848D90E001969B
:101FB0008F739927848FA689B7892C93A089B189BB
:101FC0008C91837080648C93938D848D981306C05C
:101FD0000288F389E02D80818F7D80830895CF93DF
:101FE000DF93EC01888D8823B9F0AA89BB89E88941
:101FF000F9898C9185FD03C0808186FD0DC00FB6E7
:1020000007FCF7CF8C9185FFF2CF808185FFEDCF64
:10201000CE010E94CD0FE9CFDF91CF910895EF92CD
:10202000FF920F931F93CF93DF93EC01F62E81E085
:10203000888F9B8D8C8D98131AC0E889F9898081CF
:1020400085FF15C09FB7F894EE89FF896083E88902
:10205000F98980818370806480839FBF81E090E0F4
:10206000DF91CF911F910F91FF90EF9008950B8D0D
:1020700010E00F5F1F4F0F731127E02E8C8D8E1114
:102080000CC00FB607FCFACFE889F989808185FF7B
:10209000F5CFCE010E94CD0FF1CFEB8DEC0FFD2FD0
:1020A000F11DE35AFF4FF0829FB7F8940B8FEA8936
:1020B000FB8980818062D0CFCF92DF92EF92FF9236
:1020C0001F93CF93DF93EC016A017B01122FE88904
:1020D000F98982E08083C11481EED806E104F1041D
:1020E000A1F060E079E08DE390E0A70196010E9405
:1020F000C11021503109410951095695479537952D
:102100002795211580E1380798F0E889F989108230
:1021100060E874E88EE190E0A70196010E94C1108A
:102120002150310941095109569547953795279511
:10213000EC85FD853083EE85FF852083188EEC8944
:10214000FD891083EA89FB89808180618083EA8927
:10215000FB89808188608083EA89FB89808180682F
:102160008083EA89FB8980818F7D8083DF91CF9195
:102170001F91FF90EF90DF90CF900895F8940C940A
:10218000E910A1E21A2EAA1BBB1BFD010DC0AA1F5C
:10219000BB1FEE1FFF1FA217B307E407F50720F0D0
:1021A000A21BB30BE40BF50B661F771F881F991F4B
:1021B0001A9469F760957095809590959B01AC0194
:1021C000BD01CF010895EE0FFF1F0590F491E02DA2
:0621D0000994F894FFCF12
:1021D60000000000000000000000000000000000F9
:1021E60000000000000000000000000000000000E9
:1021F60000000000000000000000000000000000D9
:1022060000000000000000000000000000000000C8
:1022160000000000000000000000000000000000B8
:1022260000000000000000000000000000000000A8
:102236000000000000000000FF0000AF0200003AAE
:1022460003FFFFFFFFFFFFFFFF0000750200000016
:10225600007A0000007A000000027E020000000002
:10226600620000006200000002000000020400009C
:1022760000010401000000FFFF0000010000000053
:1022860000000000000000000000000300FF000046
:102296000300FF000001C50DC50DFF0A5B746173E5
:1022A6006B575D0A006974656D436F756E743A20ED
:1022B6000041303A20006572726F725F696E737406
:1022C600616E743A006572726F725F6275666665FA
:1022D60072000A4D61785F76616C7565004D696EB6
:1022E6005F76616C7565000A646174613A000A2064
:1022F600636F756E743A000A47656E6572616C3A73
:10230600204D61785F76616C7565006974656D3A1C
:102316000009616C61726D3A20005B7461736B56E3
:102326005D0A006572726F723A00616C61726D3A95
:10233600004C4F5709004F46460900464153540981
:10234600008A017B01A30192087B021E0600A301FD
:10235600920884021E06019E0199013A03A1029386
:1023660002AF02E603E8038000E60900000102016D
:10237600004405C40480008D0B00000001010072BA
:1023860004740450005D0D000002000100C001BB92
:10239600010101010100330701070A07E30683046F
:1023A60080067004A906820727062F0635087207DD
:1023B6006A0899079B08E207CF0822061E09BC0790
:1023C6007C09B609FE07000000000F10140EBE0FB0
:0823D600EF0F910FAA0F9C0FFD
:00000001FF
